:100000000C9481000C94B2000C94B2000C94B200D9
:100010000C94B2000C94B2000C94B2000C94B20098
:100020000C94B2000C94B2000C94B2000C94B20088
:100030000C94B2000C94B2000C94B2000C94B20078
:100040000C94B2000C94B2000C94B2000C94B20068
:100050000C94B2000C94B2000C94B2000C941905EC
:100060000C94B2000C94E6040C940E040C94B200B0
:100070000C94B2000C94B2000C94B2000C94B20038
:100080000C94B2000C94B2000C94B2000C94B20028
:100090000C94B3040C94CF030C94B2000C94B200F3
:1000A0000C94B2000C94B2000C94B2000C94B20008
:1000B0000C94B2000C94B2000C94B2000C94B200F8
:1000C0000C94B2000C94B2000C94B2000C94800416
:1000D0000C9490030C94B2000C944D040C945103B6
:1000E0000C94B2000C9402010C94F7000C94B5002F
:1000F0000C9462010C94A8010C9463050C947E018D
:10010000630511241FBECFEFD1E2DEBFCDBF00E0FB
:100110000CBF12E0A0E0B2E0E0E6F4E100E00BBFCB
:1001200002C007900D92AA31B107D9F724E0AAE1E5
:10013000B2E001C01D92AF3CB207E1F710E0C1E8A8
:10014000D0E000E006C021970109802FFE010E9447
:10015000260AC038D10780E00807A9F70E943506B3
:100160000C94EB070C94000008950F931F93CF930A
:10017000DF93FC01A685B7858D01005C1F4FE80168
:100180008881998101968F739927AD014E5B5F4FEE
:10019000EA012881398128173907D1F3E80128813C
:1001A0003981A20FB31F6C93A685B785A05CBF4FA2
:1001B00011969C938E93A689B7892C9181E090E04B
:1001C000078C02C0880F991F0A94E2F7822B8C9348
:1001D00081E081A30488F589E02D8081806480839B
:1001E00081E090E0DF91CF911F910F910895FC0184
:1001F00081A1882329F0A489B5898C9186FFFBCF42
:1002000011A20895FC01A485B585FD01E05CFF4FB6
:10021000208131813296808191812817390779F0C8
:1002200080819181A80FB91F8C91208131812F5F2E
:100230003F4F2F7333273183208390E008958FEF52
:100240009FEF08952FB7F8948091830490918404D0
:10025000A0918504B09186042FBF8093B104909340
:10026000B204A093B304B093B40489EA94E00E946A
:10027000020197FF26C02FB7F894809183049091D4
:100280008404A0918504B09186042FBF4091B104ED
:100290005091B2046091B3047091B404841B950B27
:1002A000A60BB70B4091AD045091AE046091AF0422
:1002B0007091B00484179507A607B707B0F28FEFC7
:1002C0009FEF0895DC011C96ED91FC911D97DF01D5
:1002D000A05CBF4F2D913C91119712968D919C91EE
:1002E00011972817390739F08D919C91E80FF91F64
:1002F000808190E008958FEF9FEF0895FC012485A1
:100300003585F901E05CFF4F808191813296208133
:100310003181821B930B8F7399270895FB01E05C59
:10032000FF4F20813181DB01AE5BBF4F4D915C916E
:100330002F5F3F4F2F7333274217530741F0408100
:100340005181DB01A40FB51F8C9331832083089565
:10035000CF92DF92EF92FF920F931F93CF93DF9391
:100360006C01EB017B01E40EF51E00E010E0CE1500
:10037000DF0561F06991D601ED91FC910190F0816A
:10038000E02DC6011995080F191FF1CFC801DF91A3
:10039000CF911F910F91FF90EF90DF90CF90089534
:1003A0003FB7F89480911B0290911C02A0911D020E
:1003B000B0911E0226B5A89B05C02F3F19F00196EB
:1003C000A11DB11D3FBFBA2FA92F982F8827820FDB
:1003D000911DA11DB11DBC01CD0142E0660F771F2B
:1003E000881F991F4A95D1F70895CF92DF92EF9217
:1003F000FF92CF93DF932FB7F894C0908304D090EF
:100400008404E0908504F09086042FBFC60ED71EAA
:10041000E81EF91E87E894E00E947E010397DCF451
:100420002FB7F8948091830490918404A09185045F
:10043000B09186042FBF8C159D05AE05BF0558F4FD
:100440000E94D001EB010E94D0016C1B7D0B683E25
:10045000734000F7F8CF89EA94E00E947E0121E022
:1004600003970CF420E0822FDF91CF91FF90EF9063
:10047000DF90CF9008958F929F92AF92BF92EF92AC
:10048000FF920F931F93CF93DF93CDB7DEB7A19762
:100490000FB6F894DEBF0FBECDBF162F042F19A2E2
:1004A000423008F40AE07E0121E2E20EF11C802EC7
:1004B000912CA12CB12C612FA50194010E94040A5A
:1004C000029F1019112481E0E81AF1081A3014F47F
:1004D000105D01C0195CF7011083122F732FCA0140
:1004E000232B242B252B39F7E114F10469F001901B
:1004F0000020E9F73197AF014E195F09B70189EA8A
:1005000094E00E94A80102C080E090E0A1960FB69E
:10051000F894DEBF0FBECDBFDF91CF911F910F9139
:10052000FF90EF90BF90AF909F908F900895CF92E3
:10053000DF92EF92FF92CF93DF936B017C016DE22C
:1005400089EA94E00E94B500EC0166277727CB0189
:100550006C197D098E099F094AE00E943B028C0FAD
:100560009D1FDF91CF91FF90EF90DF90CF90089586
:100570004AE06AE071E480E090E00C943B020F9363
:100580001F93CF93DF93EC0188819981009729F025
:100590002A813B812617370788F48B016F5F7F4FD5
:1005A0000E940F09009761F0998388831B830A8357
:1005B0002C813D81232B11F4FC01108281E001C0CC
:1005C00080E0DF91CF911F910F910895CF92DF923C
:1005D000EF92FF920F931F93CF93DF931F921F927F
:1005E000CDB7DEB78C01C62EFC01118210821382BA
:1005F000128215821482168260E070E00E94BF02AF
:10060000F8012081318181110EC02115310519F0C9
:10061000C9010E948608F801118210821582148295
:100620001382128208C0F8011582148268E172E018
:10063000C9010E94FD090E9422010C2C000CDD085A
:1006400097FD23C08C159D0501F189831A82F8015D
:10065000E480F580FFEFEF1AFF0AB701C8010E949E
:10066000BF02882379F0F80120813181848195814E
:10067000BE016F5F7F4F820F931F0E94FD09F8013B
:10068000F582E4820E942201DBCFC8010F900F9017
:10069000DF91CF911F910F91FF90EF90DF90CF905E
:1006A00008951F920F920FB60F9211240BB60F925E
:1006B0002F933F938F939F93EF93FF9320915F022C
:1006C000309160028091610290916202281739078F
:1006D00031F4809131018F7D8093310114C0E0911C
:1006E0006102F0916202E15EFD4F20818091610222
:1006F0009091620201968F73992790936202809382
:10070000610220933601FF91EF919F918F913F916C
:100710002F910F900BBE0F900FBE0F901F9018954A
:100720001F920F920FB60F9211240BB60F922F93B8
:100730003F938F939F93EF93FF932091E702309124
:10074000E8028091E9029091EA022817390731F412
:100750008091D1008F7D8093D10014C0E091E90297
:10076000F091EA02E955FD4F20818091E9029091D4
:10077000EA0201968F7399279093EA028093E90227
:100780002093D600FF91EF919F918F913F912F91F0
:100790000F900BBE0F900FBE0F901F9018951F92D9
:1007A0000F920FB60F9211240BB60F922F933F9317
:1007B0008F939F93EF93FF93209191033091920336
:1007C00080919303909194032817390731F4809115
:1007D000C9008F7D8093C90014C0E0919303F0910C
:1007E0009403EF5AFC4F20818091930390919403DE
:1007F00001968F739927909394038093930320938A
:10080000CE00FF91EF919F918F913F912F910F908B
:100810000BBE0F900FBE0F901F9018951F920F9256
:100820000FB60F9211240BB60F922F933F938F9315
:100830009F93EF93FF9320913B0430913C04809170
:100840003D0490913E042817390731F48091C1008E
:100850008F7D8093C10014C0E0913D04F0913E046F
:10086000E550FC4F208180913D0490913E0401961B
:100870008F73992790933E0480933D042093C60084
:10088000FF91EF919F918F913F912F910F900BBE10
:100890000F900FBE0F901F9018951F920F920FB6DA
:1008A0000F9211240BB60F922F933F934F935F93A8
:1008B0006F937F938F939F93AF93BF93EF93FF9328
:1008C0008091300182FD07C08091360163E672E0BD
:1008D0000E948E0102C080913601FF91EF91BF917D
:1008E000AF919F918F917F916F915F914F913F91C8
:1008F0002F910F900BBE0F900FBE0F901F90189569
:100900001F920F920FB60F9211240BB60F922F93D6
:100910003F934F935F936F937F938F939F93AF9387
:10092000BF93EF93FF938091D00082FD07C0809129
:10093000D6006BEE72E00E948E0102C08091D6005C
:10094000FF91EF91BF91AF919F918F917F916F91A7
:100950005F914F913F912F910F900BBE0F900FBE63
:100960000F901F9018951F920F920FB60F9211249F
:100970000BB60F922F933F934F935F936F937F9399
:100980008F939F93AF93BF93EF93FF938091C80092
:1009900082FD07C08091CE0065E973E00E948E0160
:1009A00002C08091CE00FF91EF91BF91AF919F91D6
:1009B0008F917F916F915F914F913F912F910F9008
:1009C0000BBE0F900FBE0F901F9018951F920F92A5
:1009D0000FB60F9211240BB60F922F933F934F93A4
:1009E0005F936F937F938F939F93AF93BF93EF9397
:1009F000FF938091C00082FD07C08091C6006FE325
:100A000074E00E948E0102C08091C600FF91EF91B8
:100A1000BF91AF919F918F917F916F915F914F9116
:100A20003F912F910F900BBE0F900FBE0F901F9014
:100A300018951F920F920FB60F9211242F933F9388
:100A40008F939F93AF93BF9380918304909184047D
:100A5000A0918504B091860430911A0223E0230FFF
:100A60002D3720F40196A11DB11D05C026E8230FE6
:100A70000296A11DB11D20931A02809383049093C6
:100A80008404A0938504B093860480911B02909106
:100A90001C02A0911D02B0911E020196A11DB11D64
:100AA00080931B0290931C02A0931D02B0931E0220
:100AB000BF91AF919F918F913F912F910F900FBE5A
:100AC0000F901F901895CF92DF92EF92FF92E9EA74
:100AD000F4E01382128288EEC82E83E0D82EE12C37
:100AE000F12CC482D582E682F7826AE072E07183DB
:100AF00060838FE394E0958784878BEF93E09787FB
:100B0000868785EC90E0918B808B84EC90E0938BD2
:100B1000828B80EC90E0958B848B81EC90E0978BBE
:100B2000868B82EC90E0918F808F86EC90E0938FA3
:100B3000828F44E0448F33E0358F27E0268F95E0A5
:100B4000978F81E080A3E9EDF3E013821282C482E3
:100B5000D582E682F78271836083A5E9B3E0B58729
:100B6000A487A1E5B3E0B787A687ADECB0E0B18B71
:100B7000A08BACECB0E0B38BA28BA8ECB0E0B58B53
:100B8000A48BA9ECB0E0B78BA68BAAECB0E0B18F38
:100B9000A08FAEECB0E0B38FA28F448F358F268F3D
:100BA000978F80A3EFE2F3E013821282C482D58292
:100BB000E682F78271836083ABEEB2E0B587A487EB
:100BC000A7EAB2E0B787A687A5EDB0E0B18BA08B0E
:100BD000A4EDB0E0B38BA28BA0EDB0E0B58BA48BFD
:100BE000A1EDB0E0B78BA68BA2EDB0E0B18FA08FE6
:100BF000A6EDB0E0B38FA28F448F358F268F978FED
:100C000080A3E7E8F4E013821282C482D582E682F0
:100C1000F7827183608363E672E0758764876FE1B2
:100C200072E07787668765E371E0718B608B64E3C0
:100C300071E0738B628B60E371E0758B648B61E3B1
:100C400071E0778B668B62E371E0718F608F66E392
:100C500071E0738F628F448F358F268F978F80A3BB
:100C6000FF90EF90DF90CF9008958F929F92AF9278
:100C7000BF92DF92EF92FF920F931F93CF93DF9378
:100C8000CDB7DEB727970FB6F894DEBF0FBECDBF46
:100C9000789484B5826084BD84B5816084BD85B557
:100CA000826085BD85B5816085BD80916E00816063
:100CB00080936E0010928100809181008260809309
:100CC000810080918100816080938100809180000B
:100CD0008160809380008091B10084608093B10036
:100CE0008091B00081608093B0008091910082601B
:100CF0008093910080919100816080939100809118
:100D000090008160809390008091A1008260809328
:100D1000A1008091A10081608093A1008091A0003A
:100D200081608093A00080912101826080932101E5
:100D30008091210181608093210180912001816057
:100D40008093200180917A00846080937A00809162
:100D50007A00826080937A0080917A00816080932B
:100D60007A0080917A00806880937A001092C100A6
:100D7000E091BD04F091BE0481E090E09C01009000
:100D8000C90402C0220F331F0A94E2F72083E091C6
:100D9000B904F091BA041082E091BB04F091BC0454
:100DA0002FEC20831092CA04E091BF04F091C0049C
:100DB00040819C010090C50402C0220F331F0A9499
:100DC000E2F7242B2083E091BF04F091C00440811E
:100DD0009C010090C60402C0220F331F0A94E2F760
:100DE000242B2083E091BF04F091C00440819C013A
:100DF0000090C70402C0220F331F0A94E2F7242B8D
:100E00002083E091BF04F091C00420810090C804C9
:100E100002C0880F991F0A94E2F78095822380838D
:100E200089EA94E00E947E011816190634F0E12C3C
:100E3000F12C812C912C540111C089EA94E00E947C
:100E40000201EECF0130110509F069C060E177E2DF
:100E500080E090E00E94F50181113EC000E010E0CA
:100E60000115110579F742E050E066E172E089EA88
:100E700094E00E94A8014AE06EEE7EED81E590E0EC
:100E80000E943B0260E289EA94E00E94B50065EEB0
:100E90007EE083E59FEF0E94970260E289EA94E09A
:100EA0000E94B5004AE068EF7BED81E590E00E948A
:100EB0003B0260E289EA94E00E94B5006DE277E0CF
:100EC00083E59FEF0E9497026AE089EA94E00E941E
:100ED000B50001E010E0C4CF89EA94E00E9402016D
:100EE000182F89EA94E00E9402011E3409F05FC0C5
:100EF000803209F05CC089EA94E00E9402017C0122
:100F00000E94B80285EFE81681E0F8060CF04FC0A9
:100F10001E141F040CF04BC002E010E0A1CF023001
:100F2000110529F00330110509F09ACF40C068EE91
:100F300073E080E090E00E94F501882309F48ECFF1
:100F400089EA94E00E940201D82E89EA94E00E9486
:100F5000020197E5D9122BC0803249F560E2CE013B
:100F600001960E94E60289819A810E9486086AE0C1
:100F7000CE0101960E94E60289819A810E9486082C
:100F8000C70101978816990610F40E94B802C7019C
:100F90000F2C000CAA0BBB0B88159905AA05BB05E5
:100FA00034F08FEF881A980AA80AB80A59CF80E05F
:100FB00090E027960FB6F894DEBF0FBECDBFDF914D
:100FC000CF911F910F91FF90EF90DF90BF90AF9066
:100FD0009F908F900895F8940C942E0A0F931F936E
:100FE000CF93DF938230910510F482E090E0E0919E
:100FF000CD04F091CE0420E030E0A0E0B0E03097E6
:1010000019F1408151810281138148175907C8F0B5
:101010008417950769F4109731F012960C93129784
:1010200013961C9327C00093CD041093CE0422C0C6
:101030002115310519F04217530718F49A01BD0123
:10104000EF01DF01F801DBCF21153105F9F0281B95
:10105000390B2430310580F48A819B81611571053B
:1010600021F0FB019383828304C09093CE0480938C
:10107000CD04FE01329644C0FE01E20FF31F8193BE
:10108000919322503109398328833AC02091CB04AF
:101090003091CC04232B41F42091020230910302C1
:1010A0003093CC042093CB042091000230910102B4
:1010B0002115310541F42DB73EB7409104025091FE
:1010C0000502241B350BE091CB04F091CC04E21710
:1010D000F307A0F42E1B3F0B2817390778F0AC015B
:1010E0004E5F5F4F2417350748F04E0F5F1F509338
:1010F000CC044093CB048193919302C0E0E0F0E0F4
:10110000CF01DF91CF911F910F910895CF93DF937E
:10111000009709F481C0FC01329713821282A091DA
:10112000CD04B091CE04109781F420813181820FDB
:10113000931F2091CB043091CC042817390751F527
:10114000F093CC04E093CB0467C0ED0120E030E0E5
:10115000CE17DF0740F44A815B819E01411551059E
:10116000F1F0EA01F5CFD383C28340815181840F2E
:10117000951FC817D90759F488819981840F951F45
:101180000296918380838A819B8193838283211538
:10119000310529F4F093CE04E093CD043DC0E9017C
:1011A000FB83EA8349915991C40FD51FEC17FD07C2
:1011B00061F480819181840F951F0296E9019983E2
:1011C0008883828193819B838A83E0E0F0E012969A
:1011D0008D919C911397009719F0FD01DC01F7CFD9
:1011E0008D919C9111979D012E5F3F4F820F931F10
:1011F0002091CB043091CC042817390769F430973B
:1012000029F41092CE041092CD0402C013821282EF
:10121000B093CC04A093CB04DF91CF9108956F924B
:101220007F928F929F92AF92BF92CF92DF92EF9276
:10123000FF920F931F93CF93DF93009789F4CB0115
:10124000DF91CF911F910F91FF90EF90DF90CF90A2
:10125000BF90AF909F908F907F906F900C94EE070F
:10126000FC01E60FF71F9C0122503109E217F3073A
:1012700008F4A9C0EC01D9010D911C911197061732
:101280001707B0F00530110508F49BC0C80104979A
:101290008617970708F495C002501109061B170B13
:1012A000019311936D937C93CF010E94860889C0AE
:1012B0005B01A01AB10A4C01800E911EA091CD04D1
:1012C000B091CE04612C712CE12CF12C109709F413
:1012D00046C08D919C911197A815B905B1F56C0187
:1012E00042E0C40ED11CCA14DB0478F14C018A1808
:1012F0009B08640142E0C40ED11C1296BC90129768
:101300001396AC91B5E0CB16D10440F0B282A38322
:1013100091828082D9016D937C9309C00E5F1F4F2B
:10132000800F911FF90191838083EB2DFA2FE11437
:10133000F10431F0D7011396FC93EE93129741C05C
:10134000F093CE04E093CD043CC06816790608F40F
:101350003C017D0112960D90BC91A02DB7CF8091DC
:10136000CB049091CC0488169906E1F466167706B2
:10137000C8F48091000290910102009741F48DB76A
:101380009EB74091040250910502841B950BE8170B
:10139000F907C8F4F093CC04E093CB04F90171830E
:1013A00060830FC0CB010E94EE077C01009759F0CB
:1013B000A801BE010E94F409CE010E948608C7015F
:1013C00004C0CE0102C080E090E0DF91CF911F9178
:1013D0000F91FF90EF90DF90CF90BF90AF909F90D4
:1013E0008F907F906F900895FB01DC0102C0019007
:1013F0000D9241505040D8F70895FB01DC01019057
:101400000D920020E1F70895A1E21A2EAA1BBB1B42
:10141000FD010DC0AA1FBB1FEE1FFF1FA217B307C0
:10142000E407F50720F0A21BB30BE40BF50B661FD6
:10143000771F881F991F1A9469F76095709580959A
:1014400090959B01AC01BD01CF010895EE0FFF1FE8
:10145000881F8BBF0790F691E02D1994F894FFCF69
:101460000000CF04200000000000B500A8017E01AC
:0A14700002016201F70052200000A3
:00000001FF
