:100000000C9481000C94B2000C94B2000C94B200D9
:100010000C94B2000C94B2000C94B2000C94B20098
:100020000C94B2000C94B2000C94B2000C94B20088
:100030000C94B2000C94B2000C94B2000C94B20078
:100040000C94B2000C94B2000C94B2000C94B20068
:100050000C94B2000C94B2000C94B2000C94B9034E
:100060000C94B2000C9486030C94AE020C94B20073
:100070000C94B2000C94B2000C94B2000C94B20038
:100080000C94B2000C94B2000C94B2000C94B20028
:100090000C9453030C946F020C94B2000C94B200B5
:1000A0000C94B2000C94B2000C94B2000C94B20008
:1000B0000C94B2000C94B2000C94B2000C94B200F8
:1000C0000C94B2000C94B2000C94B2000C94200377
:1000D0000C9430020C94B2000C94ED020C94F101DB
:1000E0000C94B2000C94FC000C9443010C94030497
:1000F0000C9427010C94B5000C9407010C946D012D
:10010000030411241FBECFEFD1E2DEBFCDBF00E05C
:100110000CBF12E0A0E0B2E0E2ECFBE000E00BBFBD
:1001200002C007900D92A431B107D9F724E0A4E1F1
:10013000B2E001C01D92A53CB207E1F710E0C1E8B2
:10014000D0E000E006C021970109802FFE010E9447
:10015000D705C038D10780E00807A9F70E94D50469
:100160000C94B2050C94000008950F931F93CF9345
:10017000DF93FC01A685B7858D01005C1F4FE80168
:100180008881998101968F739927AD014E5B5F4FEE
:10019000EA012881398128173907D1F3E80128813C
:1001A0003981A20FB31F6C93A685B785A05CBF4FA2
:1001B00011969C938E93A689B7892C9181E090E04B
:1001C000078C02C0880F991F0A94E2F7822B8C9348
:1001D00081E081A30488F589E02D8081806480839B
:1001E00081E090E0DF91CF911F910F910895682FEA
:1001F00083EA94E00C94B500FC0181A1882329F0E6
:10020000A489B5898C9186FFFBCF11A20895FC01CA
:10021000A485B585FD01E05CFF4F208131813296D8
:10022000808191812817390779F080819181A80F09
:10023000B91F8C91208131812F5F3F4F2F7333275E
:100240003183208390E008958FEF9FEF0895DC01C4
:100250001C96ED91FC911D97DF01A05CBF4F2D9185
:100260003C91119712968D919C91119728173907FF
:1002700039F08D919C91E80FF91F808190E00895ED
:100280008FEF9FEF0895FC0124853585F901E05C2F
:10029000FF4F80819181329620813181821B930BA7
:1002A0008F7399270895FB01E05CFF4F2081318116
:1002B000DB01AE5BBF4F4D915C912F5F3F4F2F73C2
:1002C00033274217530741F040815181DB01A40FCE
:1002D000B51F8C93318320830895CF92DF92EF92E4
:1002E000FF920F931F93CF93DF936C01EB017B0180
:1002F000E40EF51E00E010E0CE15DF0561F0699117
:10030000D601ED91FC910190F081E02DC601199587
:10031000080F191FF1CFC801DF91CF911F910F91E5
:10032000FF90EF90DF90CF9008958F929F92AF92C1
:10033000BF92EF92FF920F931F93CF93DF93CDB7AE
:10034000DEB7A1970FB6F894DEBF0FBECDBF162F54
:10035000042F19A2423008F40AE07E0121E2E20EE5
:10036000F11C802E912CA12CB12C612FA5019401A0
:100370000E94B505029F1019112481E0E81AF108C6
:100380001A3014F4105D01C0195CF7011083122FAC
:10039000732FCA01232B242B252B39F7E114F104E9
:1003A00069F001900020E9F73197AF014E195F091C
:1003B000B70183EA94E00E946D0102C080E090E002
:1003C000A1960FB6F894DEBF0FBECDBFDF91CF91DF
:1003D0001F910F91FF90EF90BF90AF909F908F90E3
:1003E00008951F920F920FB60F9211240BB60F9221
:1003F0002F933F938F939F93EF93FF9320915D02F1
:1004000030915E0280915F02909160022817390757
:1004100031F4809131018F7D8093310114C0E091DE
:100420005F02F0916002E35EFD4F208180915F02E8
:100430009091600201968F73992790936002809348
:100440005F0220933601FF91EF919F918F913F9131
:100450002F910F900BBE0F900FBE0F901F9018950D
:100460001F920F920FB60F9211240BB60F922F937B
:100470003F938F939F93EF93FF93209107033091C6
:1004800008038091090390910A032817390731F472
:100490008091D1008F7D8093D10014C0E091090339
:1004A000F0910A03E953FD4F208180910903909157
:1004B0000A0301968F73992790930A038093090387
:1004C0002093D600FF91EF919F918F913F912F91B3
:1004D0000F900BBE0F900FBE0F901F9018951F929C
:1004E0000F920FB60F9211240BB60F922F933F93DA
:1004F0008F939F93EF93FF932091B1033091B203B9
:100500008091B3039091B4032817390731F4809197
:10051000C9008F7D8093C90014C0E091B303F091AE
:10052000B403EF58FC4F20818091B3039091B40342
:1005300001968F7399279093B4038093B30320930C
:10054000CE00FF91EF919F918F913F912F910F904E
:100550000BBE0F900FBE0F901F9018951F920F9219
:100560000FB60F9211240BB60F922F933F938F93D8
:100570009F93EF93FF9320915B0430915C048091F3
:100580005D0490915E042817390731F48091C10011
:100590008F7D8093C10014C0E0915D04F0915E04F2
:1005A000E55EFB4F208180915D0490915E04019691
:1005B0008F73992790935E0480935D042093C60007
:1005C000FF91EF919F918F913F912F910F900BBED3
:1005D0000F900FBE0F901F9018951F920F920FB69D
:1005E0000F9211240BB60F922F933F934F935F936B
:1005F0006F937F938F939F93AF93BF93EF93FF93EB
:100600008091300182FD07C08091360161E672E081
:100610000E94530102C080913601FF91EF91BF917A
:10062000AF919F918F917F916F915F914F913F918A
:100630002F910F900BBE0F900FBE0F901F9018952B
:100640001F920F920FB60F9211240BB60F922F9399
:100650003F934F935F936F937F938F939F93AF934A
:10066000BF93EF93FF938091D00082FD07C08091EC
:10067000D6006BE073E00E94530102C08091D60067
:10068000FF91EF91BF91AF919F918F917F916F916A
:100690005F914F913F912F910F900BBE0F900FBE26
:1006A0000F901F9018951F920F920FB60F92112462
:1006B0000BB60F922F933F934F935F936F937F935C
:1006C0008F939F93AF93BF93EF93FF938091C80055
:1006D00082FD07C08091CE0065EB73E00E9453015C
:1006E00002C08091CE00FF91EF91BF91AF919F9199
:1006F0008F917F916F915F914F913F912F910F90CB
:100700000BBE0F900FBE0F901F9018951F920F9267
:100710000FB60F9211240BB60F922F933F934F9366
:100720005F936F937F938F939F93AF93BF93EF9359
:10073000FF938091C00082FD07C08091C6006FE5E5
:1007400074E00E94530102C08091C600FF91EF91B6
:10075000BF91AF919F918F917F916F915F914F91D9
:100760003F912F910F900BBE0F900FBE0F901F90D7
:1007700018951F920F920FB60F9211242F933F934B
:100780008F939F93AF93BF938091190290911A0218
:10079000A0911B02B0911C023091180223E0230F9C
:1007A0002D3720F40196A11DB11D05C026E8230FA9
:1007B0000296A11DB11D20931802809319029093F7
:1007C0001A02A0931B02B0931C0280911402909114
:1007D0001502A0911602B09117020196A11DB11D3C
:1007E0008093140290931502A0931602B0931702FF
:1007F000BF91AF919F918F913F912F910F900FBE1D
:100800000F901F901895CF92DF92EF92FF92E3EA3C
:10081000F4E01382128288EEC82E83E0D82EE12CF9
:10082000F12CC482D582E682F78264E072E07183A3
:1008300060838FE594E0958784878BE194E09787C8
:10084000868785EC90E0918B808B84EC90E0938B95
:10085000828B80EC90E0958B848B81EC90E0978B81
:10086000868B82EC90E0918F808F86EC90E0938F66
:10087000828F44E0448F33E0358F27E0268F95E068
:10088000978F81E080A3E9EFF3E013821282C482A4
:10089000D582E682F78271836083A5EBB3E0B587EA
:1008A000A487A1E7B3E0B787A687ADECB0E0B18B32
:1008B000A08BACECB0E0B38BA28BA8ECB0E0B58B16
:1008C000A48BA9ECB0E0B78BA68BAAECB0E0B18FFB
:1008D000A08FAEECB0E0B38FA28F448F358F268F00
:1008E000978F80A3EFE4F3E013821282C482D58253
:1008F000E682F78271836083ABE0B3E0B587A487BB
:10090000A7ECB2E0B787A687A5EDB0E0B18BA08BCE
:10091000A4EDB0E0B38BA28BA0EDB0E0B58BA48BBF
:10092000A1EDB0E0B78BA68BA2EDB0E0B18FA08FA8
:10093000A6EDB0E0B38FA28F448F358F268F978FAF
:1009400080A3E5EAF2E013821282C482D582E682B5
:10095000F7827183608361E672E0758764876DE179
:1009600072E07787668765E371E0718B608B64E383
:1009700071E0738B628B60E371E0758B648B61E374
:1009800071E0778B668B62E371E0718F608F66E355
:1009900071E0738F628F448F358F268F978F80A37E
:1009A000FF90EF90DF90CF900895789484B58260A7
:1009B00084BD84B5816084BD85B5826085BD85B503
:1009C000816085BDEEE6F0E0808181608083E1E8B2
:1009D000F0E01082808182608083808181608083EA
:1009E000E0E8F0E0808181608083E1EBF0E08081ED
:1009F00084608083E0EBF0E0808181608083E1E9C6
:100A0000F0E0808182608083808181608083E0E982
:100A1000F0E0808181608083E1EAF0E080818260A3
:100A20008083808181608083E0EAF0E08081816062
:100A30008083E1E2F1E08081826080838081816057
:100A40008083E0E2F1E0808181608083EAE7F0E08A
:100A500080818460808380818260808380818160E6
:100A600080838081806880831092C100E3EAF4E093
:100A7000A489B58981E090E09C0100A002C0220F0A
:100A8000331F0A94E2F72C93A089B1891C92A289A2
:100A9000B3892FEC2C9311A2A689B7894C919C01A4
:100AA000048C02C0220F331F0A94E2F7242B2C93EC
:100AB000A689B7894C919C01058C02C0220F331F77
:100AC0000A94E2F7242B2C93A689B7894C919C01B8
:100AD000068C02C0220F331F0A94E2F7242B2C93BA
:100AE000A689B7892C91078C02C0880F991F0A9498
:100AF000E2F7809582238C9342E050E060E172E05F
:100B0000CF010E946D014AE06EEE7EED81E590E03E
:100B10000E94950180E290E00E94F7004AE06BE1BC
:100B200071EF8CEA90E00E94950180E290E00E94D3
:100B3000F7004AE068EF7BED81E590E00E949501C7
:100B400080E290E00E94F7004AE06EEE7EED81E5E3
:100B500090E00E9495018AE090E00E94F70080E01A
:100B600090E00895F8940C94DF05A1E21A2EAA1BD8
:100B7000BB1BFD010DC0AA1FBB1FEE1FFF1FA2174D
:100B8000B307E407F50720F0A21BB30BE40BF50B4A
:100B9000661F771F881F991F1A9469F760957095D3
:100BA000809590959B01AC01BD01CF010895EE0F9A
:100BB000FF1F881F8BBF0790F691E02D1994F894C2
:020BC000FFCF65
:100BC20000000000B5006D01430107012701FC0090
:040BD20052200000AD
:00000001FF
