:100000000C9481000C94B2000C94B2000C94B200D9
:100010000C94B2000C94B2000C94B2000C94B20098
:100020000C94B2000C94B2000C94B2000C94B20088
:100030000C94B2000C94B2000C94B2000C94B20078
:100040000C94B2000C94B2000C94B2000C94B20068
:100050000C94B2000C94B2000C94B2000C94DE0329
:100060000C94B2000C94AB030C94D3020C94B20029
:100070000C94B2000C94B2000C94B2000C94B20038
:100080000C94B2000C94B2000C94B2000C94B20028
:100090000C9478030C9494020C94B2000C94B2006B
:1000A0000C94B2000C94B2000C94B2000C94B20008
:1000B0000C94B2000C94B2000C94B2000C94B200F8
:1000C0000C94B2000C94B2000C94B2000C94450352
:1000D0000C9455020C94B2000C9412030C9416026A
:1000E0000C94B2000C94FC000C9443010C94280472
:1000F0000C9427010C94B5000C9407010C946D012D
:10010000280411241FBECFEFD1E2DEBFCDBF00E037
:100110000CBF12E0A0E0B2E0E2EBFCE000E00BBFBD
:1001200002C007900D92A431B107D9F724E0A4E1F1
:10013000B2E001C01D92A53CB207E1F710E0C1E8B2
:10014000D0E000E006C021970109802FFE010E9447
:100150004F06C038D10780E00807A9F70E94FA04CB
:100160000C942A060C94000008950F931F93CF93CC
:10017000DF93FC01A685B7858D01005C1F4FE80168
:100180008881998101968F739927AD014E5B5F4FEE
:10019000EA012881398128173907D1F3E80128813C
:1001A0003981A20FB31F6C93A685B785A05CBF4FA2
:1001B00011969C938E93A689B7892C9181E090E04B
:1001C000078C02C0880F991F0A94E2F7822B8C9348
:1001D00081E081A30488F589E02D8081806480839B
:1001E00081E090E0DF91CF911F910F910895682FEA
:1001F00083EA94E00C94B500FC0181A1882329F0E6
:10020000A489B5898C9186FFFBCF11A20895FC01CA
:10021000A485B585FD01E05CFF4F208131813296D8
:10022000808191812817390779F080819181A80F09
:10023000B91F8C91208131812F5F3F4F2F7333275E
:100240003183208390E008958FEF9FEF0895DC01C4
:100250001C96ED91FC911D97DF01A05CBF4F2D9185
:100260003C91119712968D919C91119728173907FF
:1002700039F08D919C91E80FF91F808190E00895ED
:100280008FEF9FEF0895FC0124853585F901E05C2F
:10029000FF4F80819181329620813181821B930BA7
:1002A0008F7399270895FB01E05CFF4F2081318116
:1002B000DB01AE5BBF4F4D915C912F5F3F4F2F73C2
:1002C00033274217530741F040815181DB01A40FCE
:1002D000B51F8C93318320830895CF92DF92EF92E4
:1002E000FF920F931F93CF93DF936C01EB017B0180
:1002F000E40EF51E00E010E0CE15DF0561F0699117
:10030000D601ED91FC910190F081E02DC601199587
:10031000080F191FF1CFC801DF91CF911F910F91E5
:10032000FF90EF90DF90CF9008953FB7F8948091C1
:10033000190290911A02A0911B02B0911C0226B5DD
:10034000A89B05C02F3F19F00196A11DB11D3FBF0D
:10035000BA2FA92F982F8827820F911DA11DB11D9B
:10036000BC01CD0142E0660F771F881F991F4A9597
:10037000D1F708958F929F92AF92BF92EF92FF9222
:100380000F931F93CF93DF93CDB7DEB7A1970FB62F
:10039000F894DEBF0FBECDBF162F042F19A2423036
:1003A00008F40AE07E0121E2E20EF11C802E912C7D
:1003B000A12CB12C612FA50194010E942D06029F52
:1003C0001019112481E0E81AF1081A3014F4105DB4
:1003D00001C0195CF7011083122F732FCA01232B60
:1003E000242B252B39F7E114F10469F0019000204A
:1003F000E9F73197AF014E195F09B70183EA94E03D
:100400000E946D0102C080E090E0A1960FB6F894C2
:10041000DEBF0FBECDBFDF91CF911F910F91FF9037
:10042000EF90BF90AF909F908F9008951F920F9282
:100430000FB60F9211240BB60F922F933F938F9309
:100440009F93EF93FF9320915D0230915E02809124
:100450005F02909160022817390731F480913101D1
:100460008F7D8093310114C0E0915F02F0916002B2
:10047000E35EFD4F208180915F02909160020196C2
:100480008F7399279093600280935F0220933601C7
:10049000FF91EF919F918F913F912F910F900BBE04
:1004A0000F900FBE0F901F9018951F920F920FB6CE
:1004B0000F9211240BB60F922F933F938F939F931C
:1004C000EF93FF9320910703309108038091090374
:1004D00090910A032817390731F48091D1008F7D5C
:1004E0008093D10014C0E0910903F0910A03E9530D
:1004F000FD4F20818091090390910A0301968F732B
:10050000992790930A03809309032093D600FF91C3
:10051000EF919F918F913F912F910F900BBE0F9074
:100520000FBE0F901F9018951F920F920FB60F924B
:1005300011240BB60F922F933F938F939F93EF93BA
:10054000FF932091B1033091B2038091B303909156
:10055000B4032817390731F48091C9008F7D809347
:10056000C90014C0E091B303F091B403EF58FC4FFD
:1005700020818091B3039091B40301968F739927E2
:100580009093B4038093B3032093CE00FF91EF9137
:100590009F918F913F912F910F900BBE0F900FBEA7
:1005A0000F901F9018951F920F920FB60F92112463
:1005B0000BB60F922F933F938F939F93EF93FF93DD
:1005C00020915B0430915C0480915D0490915E0405
:1005D0002817390731F48091C1008F7D8093C100C5
:1005E00014C0E0915D04F0915E04E55EFB4F208154
:1005F00080915D0490915E0401968F73992790938A
:100600005E0480935D042093C600FF91EF919F915B
:100610008F913F912F910F900BBE0F900FBE0F90B7
:100620001F9018951F920F920FB60F9211240BB6C0
:100630000F922F933F934F935F936F937F938F937B
:100640009F93AF93BF93EF93FF938091300182FD0F
:1006500007C08091360161E672E00E94530102C03A
:1006600080913601FF91EF91BF91AF919F918F9152
:100670007F916F915F914F913F912F910F900BBEA2
:100680000F900FBE0F901F9018951F920F920FB6EC
:100690000F9211240BB60F922F933F934F935F93BA
:1006A0006F937F938F939F93AF93BF93EF93FF933A
:1006B0008091D00082FD07C08091D6006BE073E08E
:1006C0000E94530102C08091D600FF91EF91BF912B
:1006D000AF919F918F917F916F915F914F913F91DA
:1006E0002F910F900BBE0F900FBE0F901F9018957B
:1006F0001F920F920FB60F9211240BB60F922F93E9
:100700003F934F935F936F937F938F939F93AF9399
:10071000BF93EF93FF938091C80082FD07C0809143
:10072000CE0065EB73E00E94530102C08091CE00C1
:10073000FF91EF91BF91AF919F918F917F916F91B9
:100740005F914F913F912F910F900BBE0F900FBE75
:100750000F901F9018951F920F920FB60F921124B1
:100760000BB60F922F933F934F935F936F937F93AB
:100770008F939F93AF93BF93EF93FF938091C000AC
:1007800082FD07C08091C6006FE574E00E945301AE
:1007900002C08091C600FF91EF91BF91AF919F91F0
:1007A0008F917F916F915F914F913F912F910F901A
:1007B0000BBE0F900FBE0F901F9018951F920F92B7
:1007C0000FB60F9211242F933F938F939F93AF9364
:1007D000BF938091150290911602A0911702B091DB
:1007E00018023091140223E0230F2D3720F40196D4
:1007F000A11DB11D05C026E8230F0296A11DB11D44
:10080000209314028093150290931602A09317026E
:10081000B09318028091190290911A02A0911B02C4
:10082000B0911C020196A11DB11D809319029093F5
:100830001A02A0931B02B0931C02BF91AF919F912B
:100840008F913F912F910F900FBE0F901F90189591
:10085000CF92DF92EF92FF92E3EAF4E013821282EA
:1008600088EEC82E83E0D82EE12CF12CC482D582EC
:10087000E682F78264E072E0718360838FE594E042
:10088000958784878BE194E09787868785EC90E055
:10089000918B808B84EC90E0938B828B80EC90E04A
:1008A000958B848B81EC90E0978B868B82EC90E02B
:1008B000918F808F86EC90E0938F828F44E0448FFD
:1008C00033E0358F27E0268F95E0978F81E080A376
:1008D000E9EFF3E013821282C482D582E682F782C6
:1008E00071836083A5EBB3E0B587A487A1E7B3E08C
:1008F000B787A687ADECB0E0B18BA08BACECB0E0D5
:10090000B38BA28BA8ECB0E0B58BA48BA9ECB0E0C4
:10091000B78BA68BAAECB0E0B18FA08FAEECB0E0A5
:10092000B38FA28F448F358F268F978F80A3EFE4EC
:10093000F3E013821282C482D582E682F782718349
:100940006083ABE0B3E0B587A487A7ECB2E0B787DC
:10095000A687A5EDB0E0B18BA08BA4EDB0E0B38B82
:10096000A28BA0EDB0E0B58BA48BA1EDB0E0B78B6E
:10097000A68BA2EDB0E0B18FA08FA6EDB0E0B38F53
:10098000A28F448F358F268F978F80A3E5EAF2E000
:1009900013821282C482D582E682F78271836083D9
:1009A00061E672E0758764876DE172E0778766873C
:1009B00065E371E0718B608B64E371E0738B628B34
:1009C00060E371E0758B648B61E371E0778B668B1C
:1009D00062E371E0718F608F66E371E0738F628F05
:1009E000448F358F268F978F80A3FF90EF90DF90F5
:1009F000CF900895CF92DF92EF92FF92CF93DF9343
:100A0000789484B5826084BD84B5816084BD85B5E9
:100A1000826085BD85B5816085BD80916E008160F5
:100A200080936E001092810080918100826080939B
:100A3000810080918100816080938100809180009D
:100A40008160809380008091B10084608093B100C8
:100A50008091B00081608093B000809191008260AD
:100A600080939100809191008160809391008091AA
:100A700090008160809390008091A10082608093BB
:100A8000A1008091A10081608093A1008091A000CD
:100A900081608093A0008091210182608093210178
:100AA00080912101816080932101809120018160EA
:100AB0008093200180917A00846080937A008091F5
:100AC0007A00826080937A0080917A0081608093BE
:100AD0007A0080917A00806880937A001092C10039
:100AE000E091B704F091B80481E090E09C0100909F
:100AF000C30402C0220F331F0A94E2F72083E0915F
:100B0000B304F091B4041082E091B504F091B604FE
:100B10002FEC20831092C404E091B904F091BA0440
:100B200040819C010090BF0402C0220F331F0A9431
:100B3000E2F7242B2083E091B904F091BA044081BC
:100B40009C010090C00402C0220F331F0A94E2F7F8
:100B5000242B2083E091B904F091BA0440819C01D8
:100B60000090C10402C0220F331F0A94E2F7242B25
:100B70002083E091B904F091BA0420810090C2046E
:100B800002C0880F991F0A94E2F780958223808320
:100B900042E050E060E172E083EA94E00E946D017F
:100BA0004AE06EEE7EED81E590E00E94BA0180E2BF
:100BB00090E00E94F7006DE283EA94E00E94B500A5
:100BC0004AE06BE171EF8CEA90E00E94BA0180E2AA
:100BD00090E00E94F7004AE068EF7BED81E590E04D
:100BE0000E94BA0180E290E00E94F7006DE283EA81
:100BF00094E00E94B5004AE063ED78EF8CEA90E063
:100C00000E94BA010E949501EB0184E6C82ED12C06
:100C1000E12CF12C0E9495016C1B7D0B683E73400A
:100C2000C8F381E0C81AD108E108F108C851DC4FC7
:100C3000C114D104E104F10469F78AE090E00E9454
:100C4000F70080E090E0DF91CF91FF90EF90DF9090
:100C5000CF900895F8940C945706A1E21A2EAA1B7F
:100C6000BB1BFD010DC0AA1FBB1FEE1FFF1FA2175C
:100C7000B307E407F50720F0A21BB30BE40BF50B59
:100C8000661F771F881F991F1A9469F760957095E2
:100C9000809590959B01AC01BD01CF010895EE0FA9
:100CA000FF1F881F8BBF0790F691E02D1994F894D1
:020CB000FFCF74
:100CB20000000000B5006D01430107012701FC009F
:040CC20052200000BC
:00000001FF
