:100000000C942C070C945D070C945D070C945D0711
:100010000C945D070C945D070C945D070C945D07D0
:100020000C945D070C945D070C945D070C945D07C0
:100030000C945D070C945D070C945D070C945D07B0
:100040000C945D070C945D070C945D070C945D07A0
:100050000C945D070C945D070C945D070C94411E95
:100060000C945D070C94F2190C941A190C945D070A
:100070000C945D070C945D070C945D070C945D0770
:100080000C945D070C945D070C945D070C945D0760
:100090000C94BF190C94DB180C945D070C945D074D
:1000A0000C945D070C945D070C945D070C945D0740
:1000B0000C945D070C945D070C945D070C945D0730
:1000C0000C945D070C945D070C945D070C948C19DF
:1000D0000C949C180C945D070C9459190C945D18A1
:1000E0000C945D078A1A8D1A801A841AC41A911A00
:1000F000951A9B1A9F1AA31AA91AAD1AB11AC41AF3
:10010000B71ABB1ABF1A0C94BB1A0C94B11A0C94F0
:100110008A1A0C9487170C9406140C945F070C949D
:1001200087160C949B1A0C94841A0C94A31A0C94A2
:100130007C070C94BA1C0C943A170C947D0B0C940D
:10014000C9160C948D1A0C94801A0C94911A0C9464
:10015000A91A0C94BF1A0C94B71A0C94C41A0C94D4
:10016000CF150C9465140C94030A0C94AD1A0C94DE
:10017000D6150C946C2A0C948F070C94F4160C94DE
:10018000A7150C94951A0C949F1A0C94D4160C94E1
:10019000B7150C94471B0C94C3150C94A6150C941E
:1001A000101711007F96290001007F9628003A0160
:1001B00055C0021010C10141C50400228040360123
:1001C00068B00100B102B011B40102B60302023BF3
:1001D000B701C63A0155F704A9512C82C0020D0D92
:1001E000C1024300C20100C50400480048B4010038
:1001F000B60302023BE00F0F211C0B0E0849983892
:10020000091103141000E10F0F2F2B0C0E06477677
:1002100037071104231E00B00100B30402000000E0
:10022000B40100D003074218D103000710D2020125
:1002300002D3020102D4020102C005123B000211E6
:10024000C103101088C50103C60102C80C00323674
:10025000450616377577540C00CC0100F6030101F2
:1002600000CF03008130ED0464031281E8038510A0
:1002700078CB05392C003402F70120EA020000B0E7
:100280000100B102001BB40100C00121C10111C570
:10029000023F3CC701B5360148F20100260101E0EA
:1002A0000F0F26240B0E0954A8460C17090F070040
:1002B000E10F00191B0410072A47390306063038DE
:1002C0000F360100B80101C0010EB00100C10410D9
:1002D000100202C006003500000102C50104D2026E
:1002E0000104CA0100EA0180B903FF83577F967FAA
:1002F00096B60125C0065050013C1E08B4070240C6
:10030000002A2A0D787F01F20B1616030808080848
:1003100010041616FD03110235B2050C0C00333320
:10032000B70135BB012BC00104C20201FFC301119B
:10033000C40120C6010FD002A4A1E00ED000050E1A
:10034000150D3743470915121619E10ED000050D9A
:100350000C062D44400E1C1816193A01557F0AB0A0
:100360000103E2013FC00122E20100B00100C0012F
:100370000AB00100000000000000000000000000C2
:1003800000000000FFFF0F000004006208000808E2
:100390000003000C01030B5A0203060903031710A4
:1003A0000403002305030017060309630703090C70
:1003B00008030C100903322210001600110001017D
:1003C0001200000013000100000130030101370298
:1003D0000301000D800200610201B0C1FFFF320085
:1003E00001000001020000010300301009000100BB
:1003F0000C000000900000800F00000010020000C0
:100400001102EF001202000013028F01000500002C
:100410000105000002055F00010401000404000062
:10042000FFFF320007000001FFFF32000002000062
:1004300001020000000000000000000000000000B9
:1004400000000100A4000100FFFF0A006000002777
:100450000800080830001402310015373200040685
:100460003300160E340011223500001536000785C2
:1004700037000714380003143900200090001500DD
:100480001000100411003702290046002A0046001F
:10049000070000001200890113000011FFFF960001
:1004A0001200B90101000001020000020300301037
:1004B000090001000A0000000D0000000E003000DD
:1004C000610001006A00000080000000810000005F
:1004D00082005F009200000193000107FFFF5000BF
:1004E00007000001E500F0780100000102000002B1
:1004F000030030100400000005000000080007029F
:10050000090000000A0000000C0000000D000000BF
:100510000F00000010000000110007001200000092
:100520001300000007000100FFFFC8001000901634
:1005300011002702FFFF320012000D00FFFF320002
:100540001300001229000A002B000D00FFFF3200EB
:1005500020000000210000003000000031000404F1
:100560003200030035000504360008083700070490
:1005700038000303390007073C0004053D00080864
:1005800060000027610001006A0000008000000098
:100590008100000082000000830000008400000051
:1005A0008500000090001000920000000700330159
:1005B000E5000080000001000100000102000007CA
:1005C00003003010040000000800020209000000CF
:1005D0000A0000000C0000000D0000000F000000E9
:1005E00010000000110007001200000013000000BE
:1005F000FFFF32001000B01711000700FFFF0A00D4
:1006000012003A01FFFF0A001300001A29000C0033
:10061000FFFF0A0030000000310005053200040031
:1006200035000600360007073700050138000200D4
:10063000390007073C0004073D000708600000A7D9
:10064000610001006A00000021000000200000009D
:100650008000000081000000820000008300000094
:10066000840000008500000090001000920000004F
:10067000930003009500100197000000980000000F
:1006800007007301FFFF3200FF000100F3000800C4
:10069000000001000100000102000007030030100B
:1006A000080002030900000010000000110007000C
:1006B0001200000013000000FFFF32001000B01411
:1006C000FFFF0A0011000700FFFF0A0012008E0062
:1006D0001300000C29001500FFFF0A003000000085
:1006E0003100070132000000350003023600020429
:1006F0003700000038000702390000003C00030208
:100700003D000304600000A7610001009000290083
:1007100007003301FFFF3200150030009A0010007F
:1007200011002000100028341200020013003810BD
:10073000FFFF280012001200FFFF280010002034E5
:1007400013004530FFFF4600300000003100020476
:1007500032000703330004033400040035000104B1
:100760003600070737000503380010063900100669
:100770000100000102000003030030100800080817
:100780000A000800600000276100010090003E019F
:100790009200000193000001A0000030A3001000AF
:1007A00007000100070021000700230007003300B5
:1007B0000700330111001A001200213113006C00F0
:1007C0001400494210000008FFFF0A0011001A013E
:1007D000FFFF0A0011001A03FFFF0A0011001A07A9
:1007E000FFFF0A0011001A0FFFFF0A0011003A0F65
:1007F000FFFF1E000100280102000001030030106D
:1008000007001210080003030B0000110C00000089
:100810000F000118150020005000010151000306CF
:100820005200080453000000540005065500060459
:10083000560003035700030358001000590000102E
:1008400007001200FFFF2800070013000700170031
:1008500000000000003E5B4F5B3E3E6B4F6B3E1C5A
:100860003E7C3E1C183C7E3C181C577D571C1C5E71
:100870007F5E1C00183C1800FFE7C3E7FF00182448
:100880001800FFE7DBE7FF30483A060E26297929F2
:1008900026407F050507407F05253F5A3CE73C5A27
:1008A0007F3E1C1C08081C1C3E7F14227F22145F04
:1008B0005F005F5F06097F017F006689956A60605F
:1008C00060606094A2FFA29408047E040810207E59
:1008D000201008082A1C08081C2A08081E101010DE
:1008E000100C1E0C1E0C30383E3830060E3E0E0624
:1008F000000000000000005F000000070007001477
:100900007F147F14242A7F2A122313086462364935
:100910005620500008070300001C2241000041221D
:100920001C002A1C7F1C2A08083E08080080703022
:100930000008080808080000606000201008040291
:100940003E5149453E00427F400072494949462197
:1009500041494D331814127F1027454545393C4A0B
:100960004949314121110907364949493646494922
:10097000291E00001400000040340000000814226A
:1009800041141414141400412214080201590906D8
:100990003E415D594E7C1211127C7F494949363ED9
:1009A000414141227F4141413E7F494949417F09BF
:1009B0000909013E414151737F0808087F00417FCA
:1009C00041002040413F017F081422417F404040C8
:1009D000407F021C027F7F0408107F3E4141413E60
:1009E0007F090909063E4151215E7F0919294626E2
:1009F0004949493203017F01033F4040403F1F20E6
:100A000040201F3F4038403F6314081463030478BC
:100A100004036159494D43007F41414102040810DC
:100A200020004141417F0402010204404040404017
:100A3000000307080020545478407F284444383885
:100A400044444428384444287F38545454180008F7
:100A50007E090218A4A49C787F0804047800447DD1
:100A600040002040403D007F1028440000417F406E
:100A7000007C047804787C080404783844444438C2
:100A8000FC1824241818242418FC7C0804040848A2
:100A90005454542404043F44243C4040207C1C20F3
:100AA00040201C3C4030403C44281028444C90904E
:100AB000907C4464544C44000836410000007700A8
:100AC00000004136080002010204023C2623263CB5
:100AD0001EA1A161123A4040207A38545455592140
:100AE0005555794122545478422155547840205428
:100AF0005579400C1E527212395555555939545476
:100B0000545939555454580000457C410002457DE4
:100B1000420001457C407D1211127DF0282528F00D
:100B20007C545545002054547C547C0A097F49323A
:100B3000494949323A4444443A324A4848303A41B1
:100B400041217A3A42402078009DA0A07D3D42425A
:100B5000423D3D4040403D3C24FF2424487E4943E3
:100B6000662B2FFC2F2BFF0929F620C0887E090356
:100B700020545479410000447D413048484A32387D
:100B80004040227A007A0A0A727D0D19317D2629A9
:100B9000292F28262929292630484D4020380808A1
:100BA000080808080808382F10C8ACBA2F102834D5
:100BB000FA00007B000008142A142222142A1408C8
:100BC0005500550055AA55AA55AAFF55FF55FF00D7
:100BD0000000FF00101010FF00141414FF0010108C
:100BE000FF00FF1010F010F0141414FC001414F7A0
:100BF00000FF0000FF00FF1414F404FC141417108D
:100C00001F10101F101F1414141F00101010F000DC
:100C10000000001F101010101F10101010F0100016
:100C20000000FF101010101010101010FF10000026
:100C300000FF140000FF00FF00001F10170000FC61
:100C400004F414141710171414F404F40000FF0033
:100C5000F714141414141414F700F71414141714BC
:100C600010101F101F141414F4141010F010F000C2
:100C7000001F101F0000001F14000000FC140000E3
:100C8000F010F01010FF10FF141414FF14101010C7
:100C90001F00000000F010FFFFFFFFFFF0F0F0F07A
:100CA000F0FFFFFF0000000000FFFF0F0F0F0F0F0E
:100CB0003844443844FC4A4A4A347E02020606025A
:100CC0007E027E0263554941633844443C04407EC1
:100CD000201E2006027E020299A5E7A5991C2A493A
:100CE0002A1C4C7201724C304A4D4D3030487848C5
:100CF00030BC625A463D3E494949007E0101017EB1
:100D00002A2A2A2A2A44445F444440514A44404003
:100D1000444A51400000FF0103E080FF0000080842
:100D20006B6B083612362436060F090F06000018C2
:100D3000180000001010003040FF0101001F0101E9
:100D40001E00191D1712003C3C3C3C000000000036
:100D500001021020200808102040102040800201CD
:100D600002010804020101020408102040808040B2
:100D700020100804020180040201804020100804B1
:100D8000020108040201010204081020408001024F
:100D900004081020408000002200250028002B00BD
:100DA0002E003100340002010000050108010B0192
:100DB00005050505070508080808020202020A0AD7
:100DC00008080404040401010101010101010303F5
:100DD000030303030303040707070C0C0C0C0C0CA0
:100DE0000C0C0202020206060606060606060B0B9D
:100DF0000B0B0B0B0B0B00002100240027002A001B
:100E00002D003000330001010000040107010A0138
:100E10000000090A02080B0C0D070603040100007C
:100E200000000000000000000000000000000000C2
:100E300000000000000000000000000011100F0082
:100E400000000000000000000000000000000000A2
:100E50000000000000006C2A11241FBECFEFD1E279
:100E6000DEBFCDBF00E00CBF13E0A0E0B2E0E0EEDB
:100E7000FCE500E00BBF02C007900D92A232B10763
:100E8000D9F728E0A2E2B3E001C01D92A233B20775
:100E9000E1F717E0CCE2D7E000E006C021970109B6
:100EA000802FFE010E94662ECB32D10780E008071A
:100EB000A9F70E9416200C94D42B0C940000EF92FA
:100EC000FF920F931F93DC011A960D911C911B97B3
:100ED00018962D913C911997ED91FC91048CF58D0C
:100EE000E02D7B0140E050E060E070E019951F913B
:100EF0000F91FF90EF900895EF92FF920F931F9341
:100F0000DC01ED91FC91048CF58DE02D780101E080
:100F100010E019951F910F91FF90EF900895EF92B7
:100F2000FF920F931F93DC01ED91FC91048CF58DE2
:100F3000E02D7801890121E030E019951F910F9192
:100F4000FF90EF9008950895FC016370658B848194
:100F5000958126813781613039F0633029F091879E
:100F600080873387228708953187208793878287F8
:100F700008958B988A982091020127782093020186
:100F8000A5982EB1277C2EB970910201292F332705
:100F9000F901E370FF27A5E0EE0FFF1FAA95E1F727
:100FA000E72BE09302017EB1F901EC70FF27EE0F11
:100FB000FF1FEE0FFF1FE72BEEB974B3F901E071CD
:100FC000FF27EE0FFF1FE72BE4BB7EB1F901E072B4
:100FD000FF27F595E795F595E795E72BEEB9709125
:100FE0000201207C3327E3E035952795EA95E1F768
:100FF000272B209302018998899A20910201277852
:1010000020930201A5982EB1277C2EB97091020180
:101010009C0123703327F5E0220F331FFA95E1F787
:10102000272B209302017EB19C012C703327220FC5
:10103000331F220F331F272B2EB974B39C0120714D
:101040003327220F331F272B24BB7EB19C01207234
:1010500033273595279535952795272B2EB97091F0
:1010600002019C01207C3327F3E035952795FA9502
:10107000E1F7272B209302018998899A8A9AFA012D
:10108000A0912C067FEF760F16160CF0C7C02191A9
:1010900030910201377830930201A5983EB1377C38
:1010A0003EB960910201322F3370B0E23B9FA00144
:1010B0001124462B409302016EB1322F3C70B4E0F4
:1010C0003B9FA0011124462B4EB944B3322F3071FF
:1010D000330F342B34BB6EB1322F3072432F50E0BC
:1010E0005595479555954795462B4EB93091020138
:1010F000207C269526952695232B209302018998FE
:10110000899A711102C0672FBDCFAA23E1F301961E
:101110008A9820910201277820930201A5982EB188
:10112000277C2EB960910201292F3327A901437032
:101130005527B5E0440F551FBA95E1F7462B40936C
:1011400002016EB1A9014C705527440F551F440F81
:10115000551F462B4EB964B3A90140715527440F62
:10116000551F462B44BB6EB1A901407255275595BA
:10117000479555954795462B4EB940910201207CE5
:10118000332753E0359527955A95E1F7242B209383
:1011900002018998899A20910201277820930201FF
:1011A000A5982EB1277C2EB9409102019C01237095
:1011B000332765E0220F331F6A95E1F7242B209334
:1011C00002014EB19C012C703327220F331F220FD6
:1011D000331F242B2EB944B39C0120713327220FD7
:1011E000331F242B24BB4EB19C012072332735952D
:1011F000279535952795242B2EB9409102019C0106
:10120000207C3327B3E035952795BA95E1F7242B59
:10121000209302018998899A8A9A75CF8B9A0895AA
:101220008B988A98E2E0F1E0208127782083A598C6
:101230002EB1277C2EB9A081292F3327A901437015
:101240005527B5E0440F551FBA95E1F74A2B408367
:10125000AEB1A9014C705527440F551F440F551FBF
:101260004A2B4EB9A4B3A90140715527440F551F0D
:101270004A2B44BBAEB1A9014072552755954795FD
:10128000559547954A2B4EB94081207C332753E032
:10129000359527955A95E1F7242B20838998899ACB
:1012A000208127782083A5982EB1277C2EB94081F4
:1012B0009C0123703327A5E0220F331FAA95E1F785
:1012C000242B20834EB19C012C703327220F331F17
:1012D000220F331F242B2EB944B39C0120713327D6
:1012E000220F331F242B24BB4EB19C0120723327C5
:1012F0003595279535952795242B2EB92081807C0F
:101300009927B3E095958795BA95E1F7822B80836D
:101310008998899A8A9A808187788083A5988EB1E6
:10132000877C8EB94081872F99279C0123703327B2
:1013300055E0220F331F5A95E1F7242B20834EB13D
:101340009C012C703327220F331F220F331F242BB5
:101350002EB944B39C0120713327220F331F242B55
:1013600024BB4EB19C0120723327359527953595C6
:101370002795242B2EB92081807C9927A3E0959571
:101380008795AA95E1F7822B80838998899A808135
:1013900087788083A5988EB1877C8EB92081CB0118
:1013A00083709927B5E0880F991FBA95E1F7822BD2
:1013B00080832EB1CB018C709927880F991F880FDD
:1013C000991F822B8EB924B3CB0180719927880F86
:1013D000991F822B84BB2EB1CB01807299279595E2
:1013E000879595958795822B8EB98081607C77272C
:1013F000A3E075956795AA95E1F7682B60838998B6
:10140000899A8B9A0895EF92FF920F931F93CF932F
:10141000DF937C01E90177FD69C157FD67C1FC01DC
:1014200080859185681779070CF060C18285938566
:10143000481759070CF05AC180912B06882341F0B8
:10144000CE018F719927880F991FC17CC82BD92B8A
:101450008A019B01C7010E940C1C80912C068823E5
:1014600009F438C18B988A98F70182A593A5209139
:101470000201277820930201A5982EB1277C2EB96E
:1014800060910201292F3327A9014370552775E088
:10149000440F551F7A95E1F7462B409302016EB138
:1014A000A9014C705527440F551F440F551F462B5B
:1014B0004EB964B3A90140715527440F551F462BFF
:1014C00044BB6EB1A9014072552755954795559576
:1014D0004795462B4EB940910201207C3327B3E05B
:1014E00035952795BA95E1F7242B20930201899829
:1014F000899A20910201277820930201A5982EB1A4
:10150000277C2EB9409102019C012370332715E0FE
:10151000220F331F1A95E1F7242B209302014EB1BD
:101520009C012C703327220F331F220F331F242BD3
:101530002EB944B39C0120713327220F331F242B73
:1015400024BB4EB19C0120723327359527953595E4
:101550002795242B2EB920910201807C992773E0D6
:10156000959587957A95E1F7822B8093020189986A
:10157000899A8A9A2C2F220F220F220F8091020122
:10158000877880930201A5988EB1877C8EB980916F
:101590000201809302013EB1CE018827987F892FF6
:1015A0009927AC014C705527440F551F440F551F08
:1015B000432B4EB934B3AC0140715527440F551F2E
:1015C000432B44BB3EB1AC0140725527559547951E
:1015D00055954795432B4EB930910201807C992750
:1015E00013E0959587951A95E1F7832B8093020177
:1015F0008998899A80910201877880930201A59841
:101600008EB1877C8EB980910201809302013EB138
:10161000C07ED77003E0D695C7950A95E1F7CE0155
:101620008C709927880F991F880F991F832B8EB96B
:1016300034B3CE0180719927880F991F832B84BB07
:101640003EB1CE018072992795958795959587959E
:10165000832B8EB980910201C07CDD2773E0D59584
:10166000C7957A95E1F7C82BC09302018998899AAA
:1016700080910201877880930201A5988EB1877CC2
:101680008EB980910201809302019EB1822F8C70ED
:10169000880F880F892B8EB994B3822F8071880FA1
:1016A000892B84BB3EB1922F9072892F90E0959543
:1016B000879595958795832B8EB980910201207C23
:1016C000269526952695282B209302018998899A9C
:1016D0008B9A0CC0BE01F70182A593A5DF91CF9133
:1016E0001F910F91FF90EF900C941009DF91CF9113
:1016F0001F910F91FF90EF900895DF92EF92FF926C
:101700000F931F93CF93DF93CDB7DEB72A970FB612
:10171000F894DEBF0FBECDBF7C01862F8370D7014A
:1017200055968C935597462F417060FF05C01696CD
:101730002D913C91179703C0F70124813581D70182
:1017400019963C932E931897442329F014962D91C3
:101750003C91159703C0F70126813781D7011B966D
:101760003C932E931A97823041F0833041F08130C0
:1017700011F088E405C088E203C088E901C088EF61
:101780008A87F701248D358D30FF03C08A85805804
:101790008A8731FF04C09A8580E489278A8733FFCE
:1017A00004C09A8588E089278A87D7015E968D9143
:1017B0009C915F9720FFD5C010912C068431B8E62C
:1017C0009B07F9F49A85892F881F8827881F82959F
:1017D000880F880F807C96FD02C020E001C020E2C7
:1017E00098729A871F828260822B88878BE3898711
:1017F000AE01495F5F4F63E086EB90E00E94B9075E
:1018000089C08336E9E19E0741F08138F4E99F07FA
:1018100021F0813125E1920709F52A8527FF02C0D1
:1018200021602A872A8526FF02C022602A87833604
:1018300039E1930719F48A858F730EC0813844E922
:10184000940719F48A858F7207C08131954109F098
:1018500061C08A858F7E806C8A875CC0112309F401
:1018600059C062E070E0F70177A366A326E030E09C
:1018700031A720A7E2E2F0E0D7019B96FC93EE931C
:101880009A979D967C936E939C9764E070E09F96E8
:101890007C936E939E97D1963C932E93D09728E09D
:1018A00030E0D3963C932E93D2978536910521F55F
:1018B0008A85982F916084FD02C09A8703C083EDCA
:1018C00089278A87442351F082E890E0F70197A3A3
:1018D00086A380E890E091A780A732C280E890E0DC
:1018E000D70197969C938E93969782E890E099966D
:1018F0009C938E93989724C28235924501F58A85F0
:10190000982F926084FD02C09A8719C084ED8927C0
:101910008A8715C02AE230E0F70137A326A38BE2BD
:1019200090E091A780A74CE250E053A742A735A7CB
:1019300024A737A726A791AB80AB93AB82AB11113D
:10194000FFC186E390E0AE01465F5F4F61E00E9419
:10195000B9078A8590E0D70193969C938E939297CE
:10196000E6C02A858339B7E79B0709F448C050F4DD
:101970008435F1E09F0781F0803234E5930709F068
:1019800081C03DC0863243E99407C9F18930A5EB97
:101990009A0709F077C033C087E390E0F70195A775
:1019A00084A786E390E097A786A789E390E091ABB0
:1019B00080AB88E390E093AB82AB80E290E097A3AA
:1019C00086A381E290E091A780A782E290E093A7AE
:1019D00082A7822F022E000C990B8827990F881F4F
:1019E0009927982F8827990F26FD03C060E070E0A3
:1019F00002C060E071E08862682B792B82C040E011
:101A000052E0D70197965C934E93969741E052E04F
:101A100099965C934E93989742E052E09B965C9324
:101A20004E939A9740E152E09D965C934E939C971B
:101A300041E152E09F965C934E939E9742E152E0C3
:101A4000D1965C934E93D09743E152E0D3965C934A
:101A50004E93D29727FD03C020E030E002C020E083
:101A600030E88632B3E99B0731F08032944519F0B3
:101A700060E07AE602C060E075E3622B732B80E0E1
:101A800094E035C080E290E0D70197969C938E93C6
:101A9000969781E290E099969C938E93989782E234
:101AA00090E09B969C938E939A9780E590E09D960C
:101AB0009C938E939C9781E590E09F969C938E9348
:101AC0009E9782E590E0D1969C938E93D09783E584
:101AD00090E0D3969C938E93D29727FD03C060E04D
:101AE00070E002C060E070E8776280E690E00E94FB
:101AF00010098A8586FD03C060E070E002C060E0E6
:101B000071E081E090E00E9410098A8585FD03C0A4
:101B100060E070E002C068E070E083FD70616063C7
:101B2000F70173A362A383E090E00E941009D7013C
:101B300055968C91559780FF36C05C968D919C91FF
:101B40005D9792FD30C096968D919C91979798964F
:101B50002D913C91999797963C932E9396979996B1
:101B60009C938E9398979C968D919C919D97D096DF
:101B70002D913C91D1979D963C932E939C97D19615
:101B80009C938E93D0979E968D919C919F97D29681
:101B90002D913C91D3979F963C932E939E97D396ED
:101BA0009C938E93D297F7010285138501501109FA
:101BB000208531852150310940E050E060E070E03F
:101BC000C7010E940C1CD70116966D917C91179746
:101BD0005E968D919C915F978732B3E99B0741F4A4
:101BE000F70125892250223018F400E210E002C0EB
:101BF00000E010E08732F3E99F0729F0222733271E
:101C0000201B310B04C020E230E0201B310BD70138
:101C10005C964C9140FF45C01982D02E0A837B838D
:101C20006C833D832E8310912C06111103C083E336
:101C300090E002C08EE090E0AE014F5F5F4F66E043
:101C40000E94B9071982DA82111103C087E390E07C
:101C500002C084E190E0AE014F5F5F4F62E00E94FE
:101C6000B907112389F01982F701868D978D873482
:101C7000934819F081E090E002C088E190E0AE0165
:101C80004F5F5F4F61E00AC0D7015C968C9180FF87
:101C90005AC040E050E060E083E190E00E94B90764
:101CA00052C08339B7E79B0779F160F48032F4E5DD
:101CB0009F0751F1833827E7920781F084359140DF
:101CC00089F510C0863243E99407F1F08930A5EB1D
:101CD0009A07D1F08532924929F504C0F70160A135
:101CE00071A124C0600F711F6150710981E390E000
:101CF0000E941009B80182E390E00E94100960E0A0
:101D000070E083E390E019C0D70190966D917C91CB
:101D10009197626081E094E00E941009B80184E02C
:101D200094E00BC0F70160A171A1626081E690E0D0
:101D30000E941009B8018AE690E00E94100903C0D1
:101D400086E190E000CE2A960FB6F894DEBF0FBE73
:101D5000CDBFDF91CF911F910F91FF90EF90DF905A
:101D60000895089561E080917F050C945F1A809139
:101D700081058823A9F080918205909183059C01BB
:101D80002F5F3F4F3093830520938205823092402E
:101D900018F40E948D1BEFCF0E94B20E10928105A5
:101DA00008958F929F92AF92BF92EF92FF920F93FE
:101DB0001F93CF93DF93CDB7DEB7A1970FB6F894FB
:101DC000DEBF0FBECDBF162F042F19A2423008F47C
:101DD0000AE07E0121E2E20EF11C802E912CA12C62
:101DE000B12C612FA50194010E94012C029F1019B2
:101DF000112481E0E81AF1081A3014F4105D01C0D2
:101E0000195CF7011083122F732FCA01232B242B87
:101E1000252B39F7B70188E895E00E942C1AA19686
:101E20000FB6F894DEBF0FBECDBFDF91CF911F91EB
:101E30000F91FF90EF90BF90AF909F908F9008957B
:101E400081E08093BC05E1E0F1E0808188678083D8
:101E50009D9A8DB188638DB9809A819A829A839A6E
:101E6000849A8B9A889A899A8C9A62E370E080E0CF
:101E700090E00E94151B8C9864E670E080E090E092
:101E80000E94151B8C9A64E670E080E090E00E944E
:101E9000151B60E070E080EB90E00C9410090F934C
:101EA0001F93CF93DF93EC01162F8091BC05811116
:101EB00002C00E94200F8B988A9880910201877837
:101EC00080930201A5988EB1877C8EB94091020162
:101ED0008D2F99279C012370332755E0220F331F44
:101EE0005A95E1F7242B209302014EB19C012C70EE
:101EF0003327220F331F220F331F242B2EB944B355
:101F00009C0120713327220F331F242B24BB4EB199
:101F10009C01207233273595279535952795242BDD
:101F20002EB920910201807C9927F3E09595879541
:101F3000FA95E1F7822B809302018998899A809122
:101F40000201877880930201A5988EB1877C8EB9B3
:101F500020910201CE0183709927A5E0880F991F77
:101F6000AA95E1F7822B809302012EB1CE018C70ED
:101F70009927880F991F880F991F822B8EB924B338
:101F8000CE0180719927880F991F822B84BB2EB1B7
:101F9000CE01807299279595879595958795822B87
:101FA0008EB980910201C07CDD2743E0D595C795AD
:101FB0004A95E1F7C82BC09302018998899A8A9AB9
:101FC000809101018778809301019D988DB1877C74
:101FD0008DB961E070E080E090E00E94151B889A66
:101FE000889888988898609100018CB1A2B34CB110
:101FF00000910001889A889A889888988898E0913A
:102000000001FCB132B32CB1C0910001889A11508B
:1020100017FFE5CF889A8B9A90910101986790936A
:1020200001019D9A9DB198639DB9487050E0440F9D
:10203000551F440F551F087198E0099F8001112416
:10204000402B512BA072B0E0B595A7954A2B5B2B86
:10205000807390E09595879595958795482B592B9A
:10206000607670E0B5E075956795BA95E1F7462B17
:10207000572B542F44272870220F220F8C2F887142
:1020800098E0899FE00111249C2F922B3072232F1E
:1020900030E035952795292B9F2F9073969596952F
:1020A000922B2E2F2076229526952770292BCA0158
:1020B000822BDF91CF911F910F910895FF920F9383
:1020C0001F93CF93DF93EC0160E00E944F0F8C01D0
:1020D00061E0CE010E944F0FF82E62E0CE010E9417
:1020E0004F0F20E030E0302F22271127002740E05B
:1020F00050E05F2D60E070E0042B152B262B372B72
:10210000492F50E060E070E0CB01BA01602B712BE9
:10211000822B932BDF91CF911F910F91FF90089508
:102120000F931F93CF93DF938C0160E00E944F0FBA
:10213000EC0161E0C8010E944F0FAC01CE01A0E0AC
:10214000B0E0DC019927882760E070E08C019D01F8
:10215000042B152B262B372BC901B801DF91CF910A
:102160001F910F910895EF92FF920F931F93CF93BA
:10217000DF93C82FD0E0E12CF12C04E110E022E83D
:1021800030E0AE0160E070E088E895E00E94BA1CA3
:1021900022E830E0AE0160E070E088E895E00E945F
:1021A000BA1CDF91CF911F910F91FF90EF9008958E
:1021B0002F923F924F925F926F927F928F929F9257
:1021C000AF92BF92CF92DF92EF92FF920F931F9345
:1021D000CF93DF93CDB7DEB76B970FB6F894DEBF22
:1021E0000FBECDBF9B8F8A8F5B011A01D22E1F833A
:1021F0000E833701C982DC0158962D913C91599785
:102200002115310509F0E6C018968D919C9119971A
:10221000681779070CF0CDC11A968D919C911B9788
:10222000481759070CF0C5C18C2C912CFB0126E0F6
:10223000C29EE00DF11D1124FB87EA871E161F06C2
:102240000CF0B7C1A40183E0440F551F8A95E1F754
:102250005D874C87CA01820D931D181619060CF074
:10226000A8C157968C91811104C05FEA5D1508F4EE
:10227000D394AA8DBB8DED91FC9111970680F781C7
:10228000E02DCD011995B5E0DB9EC0011124F501CB
:102290003596FF87EE87BB82AA8225019C012A1909
:1022A0003B09398B288BA101485F5F4F5B8B4A8BC1
:1022B000E889F989E40DF51DE05BF74F54915887E3
:1022C00061013D822C82888580FF13C0AA8DBB8D61
:1022D000ED91FC91B981B13031F40084F185E02DAC
:1022E0002E813F8116C00284F385E02DEE80FF80B1
:1022F0001AC0EE81FF81E615F705F1F0AA8DBB8DBE
:10230000ED91FC91B981B13051F40084F185E02D5B
:102310009301A601B2018A8D9B8D19950DC002848F
:10232000F385E02D7301840194014C815D816A8104
:102330007B818A8D9B8D1995E885E695E887FFEF6F
:10234000CF1ADF0A2C813D81280D391D3D832C8356
:102350004A895B89C416D50609F0B5CF5FEF451AE7
:10236000550A8A819B81880D991D9B838A83AE853E
:10237000BF854A165B0609F09BCFEE81FF81E6150B
:10238000F70509F4F4C0EA8DFB8DA081B181F981D4
:10239000F13079F4B5016B5F7F4F1C96ED91FC91A4
:1023A0001D97830128E030E0A1018A8D9B8D19954E
:1023B000DEC06A857B85681979091A96ED91FC91D2
:1023C0001B9773010C851D859401A1018A8D9B8D3E
:1023D0001995CDC0F9013496E491DE1AF9013296CF
:1023E00085919491B7E0DB9E800D911D1124F90138
:1023F000259134913B8B2A8BFC0125913491290145
:10240000FC013296C490319634913E8732961491F5
:102410003196D4904981423058F0612E012E000C43
:1024200077088D2D0D2C000C990B9987888704C097
:1024300019861886612C712CAA8DBB8DED91FC91AB
:1024400011970680F781E02DCD011995B9818B2E6A
:10245000912C689CC001699C900D789C900D112472
:10246000FC01EA0DFB1DFD87EC871A82712C612CA3
:10247000E12F110FFF0B95012E0F3F1F3B872A877E
:10248000AC0CB11CA5014E0F5F1F5F8B4E8BC101C1
:102490008D0D911DD7FC9A95998F888F9E85691611
:1024A00008F065C0862D90E048855985480F591F72
:1024B000489D9001499D300D589D300D1124D1014A
:1024C000A20FB31FB98BA88BEC85FD85FD83EC8330
:1024D000AA84BB84DA80FA85DF1A288D398D280F0B
:1024E000391F3D8B2C8B8D2D8A0D4E895F89A4164B
:1024F000B506C1F1877041F4C2010196EA89FB89F2
:10250000E40DF51D74902C0177FE21C0AA8DBB8DC2
:10251000ED91FC91B981B13061F40084F185E02D39
:102520002E813F814C895D89B5018A8D9B8D1995DE
:102530000EC00284F385E02DEE80FF8084019401BB
:10254000488959896C817D818A8D9B8D1995770C7D
:10255000EFEFAE1ABE0A2C813D81280D391D3D8357
:102560002C83C1CF3A813C0D3A83639497CFAA8DD7
:10257000BB8DED91FC9111970288F389E02DCD017F
:102580006B960FB6F894DEBF0FBECDBFDF91CF9133
:102590001F910F91FF90EF90DF90CF90BF90AF9081
:1025A0009F908F907F906F905F904F903F902F9073
:1025B00019946B960FB6F894DEBF0FBECDBFDF91B6
:1025C000CF911F910F91FF90EF90DF90CF90BF9030
:1025D000AF909F908F907F906F905F904F903F90C3
:1025E0002F900895863308F0865390917B00282F12
:1025F0002870977F922B90937B00877080648093E4
:102600007C0080917A00806480937A0080917A00C7
:1026100086FDFCCF809178002091790090E0922B8C
:102620000895F89498E02F9887FF02C02D9A01C072
:102630002D98880F2F9A9150B1F7000000000000EC
:1026400000002F9878940895CF92DF92EF92FF9236
:102650001F93CF93DF93182F6A017B010E94B70E5F
:1026600060E080917F050E945F1A0E943B1BEB0196
:102670000E948D1B8F3F39F4812F80640E941113BB
:10268000C8E1D0E008C00E943B1B6C1B7D0B6C3284
:10269000714070F3F1CFD701C6010C2E04C0B6957E
:1026A000A795979587950A94D2F70E9411132897BA
:1026B000C83F8FEFD80779F7112321F0183021F4A4
:1026C00087E803C085E901C08FEF0E941113C0E0C5
:1026D0000E948D1B8093850587FF04C0CF3F11F0BA
:1026E000CF5FF6CFDF91CF911F91FF90EF90DF90FA
:1026F000CF900895CF92DF92EF92FF920F931F93A6
:10270000CF93DF93142F052F209181052223A1F071
:10271000C0907B05D0907C05E0907D05F0907E0513
:10272000C616D706E806F90639F4209182053091DD
:102730008305232B09F43FC060937B0570937C05D0
:1027400080937D0590937E0520918605233039F096
:1027500029E0660F771F881F991F2A95D1F7AB01D3
:10276000BC0181E10E942413882321F083E080933F
:1027700080053EC00E943B1BEB010E948D1B809395
:1027800085058F3F49F40E943B1B6C1B7D0B6D320E
:10279000714098F38FE003C08E3F31F08DE080935D
:1027A00080050E94B20E24C010928305109282050B
:1027B00081E080938105C12FD02F8E011E5F0E9482
:1027C0008D1B8993C017D107D1F780918205909115
:1027D00083059E5F909383058093820520918405F5
:1027E000222319F08115924038F00E94B70E04C0E0
:1027F0000E94B20E80E001C081E0DF91CF911F9175
:102800000F91FF90EF90DF90CF9008956F927F929D
:102810008F929F92AF92BF92CF92DF92EF92FF92F0
:102820000F931F93CF93DF93EC014B015A01690182
:102830003801E881F9810680F781E02D1995E8815A
:10284000F9810684F785E02D87019601A501B40181
:10285000CE011995A501460D571D41505109E8813A
:10286000F9810684F785E02D9601B401CE01199512
:10287000E881F9810484F585E02D9301A501B40177
:10288000CE011995C80CD91CB60161507109E881B7
:10289000F9810484F585E02D9301A501CE011995F8
:1028A000E881F9810288F389E02DCE01DF91CF9193
:1028B0001F910F91FF90EF90DF90CF90BF90AF905E
:1028C0009F908F907F906F9019948F929F92AF926C
:1028D000BF92CF92DF92EF92FF920F931F93CF930D
:1028E000DF934C016B015A01E901DC01ED91FC9190
:1028F0006217730781F40417150724F48B2D580110
:10290000042F182F0A191B0998012F5F3F4F008CC5
:10291000F18DE02D12C04017510709F52617370732
:1029200024F48D2D6901C62FD82F9E012C193D0945
:102930002F5F3F4F028CF38DE02D8701A501B6017B
:10294000C4011995DF91CF911F910F91FF90EF90E6
:10295000DF90CF90BF90AF909F908F9008950680AA
:10296000F781E02D1995D401ED91FC910088F18952
:10297000E02D9E01A501B601C4011995D401ED9188
:10298000FC910288F389E02DC401DF91CF911F9162
:102990000F91FF90EF90DF90CF90BF90AF909F90FE
:1029A0008F901994EF92FF920F931F93DC011A9668
:1029B0000D911C911B9718962D913C911997ED91B3
:1029C000FC91048CF58DE02D7B0140E050E060E04F
:1029D00070E019951F910F91FF90EF9008954F921D
:1029E0005F926F927F928F929F92AF92BF92CF929F
:1029F000DF92EF92FF920F931F93CF93DF936C01BF
:102A00002B015A0139014801DC01ED91FC9106804E
:102A1000F781E02D1995E201640C751CD601ED914A
:102A2000FC91C615D7055CF40484F585E02D87017B
:102A30009401A501BE01C60119952196EFCF028828
:102A4000F389E02DC601DF91CF911F910F91FF9087
:102A5000EF90DF90CF90BF90AF909F908F907F903E
:102A60006F905F904F9019948F929F92AF92BF9208
:102A7000CF92DF92EF92FF920F931F93CF93DF934A
:102A8000EC015B014A016901E881F9810680F78167
:102A9000E02D199595012C0D3D1D21503109E8813E
:102AA000F9810088F189E02D78018401A401B50144
:102AB000CE011995E881F9810288F389E02DCE01D4
:102AC000DF91CF911F910F91FF90EF90DF90CF900A
:102AD000BF90AF909F908F9019948F929F92AF92DA
:102AE000BF92CF92DF92EF92FF920F931F93CF93FB
:102AF000DF93EC015B014A0169017801E881F9810A
:102B00000680F781E02D1995C80CD91C860101506B
:102B10001109E881F9810088F189E02D9501A4016E
:102B2000B501CE011995E881F9810288F389E02D7C
:102B3000CE01DF91CF911F910F91FF90EF90DF9029
:102B4000CF90BF90AF909F908F9019940895EF927F
:102B5000FF920F931F93DC01ED91FC91048CF58D96
:102B6000E02D19951F910F91FF90EF9008950F930D
:102B70001F93DC01ED91FC91028CF38DE02D1995F2
:102B80001F910F9108950F931F93DC01ED91FC911C
:102B9000008CF18DE02D19951F910F910895DC01A6
:102BA000ED91FC910480F581E02D19942F923F92D4
:102BB0004F925F926F927F928F929F92AF92BF924D
:102BC000CF92DF92EF92FF920F931F93CF93DF93F9
:102BD00000D000D0CDB7DEB72C017E836D836A01B3
:102BE0005901C801FC82EB824801841A950A97FEBC
:102BF00003C091948194910835012D813E81621A20
:102C0000730A77FE03C071946194710868147904A3
:102C10005CF43A2D2B2D5C01832F922F3D812E8168
:102C2000DE82CD82C32ED22EAD81BE81AA16BB0616
:102C30005CF43C2D2D2D6C01832F922F3D812E8134
:102C4000BE82AD82A32EB22E85012D813E81021B54
:102C5000130B1C012C183D0837FE03C0319421943E
:102C60003108780117FF03C03FEFE31AF30AF59428
:102C7000E794C816D9062CF08FEF9FEF9A838983CB
:102C800004C0A1E0B0E0BA83A9832D813E81A216E1
:102C9000B30624F1D201ED91FC910084F185E02D81
:102CA0002B813C816814790424F44D815E81B60146
:102CB00003C0A6016D817E81C2011995E218F30857
:102CC000F7FE06C029813A81C20ED31EE00EF11E26
:102CD0008D819E8101969E838D83D7CF26960FB6D8
:102CE000F894DEBF0FBECDBFDF91CF911F910F9142
:102CF000FF90EF90DF90CF90BF90AF909F908F901C
:102D00007F906F905F904F903F902F9008950F931A
:102D10001F93CF93DF93FC01A685B7858D01005CDF
:102D20001F4FE8018881998101968F739927AD0122
:102D30004E5B5F4FEA012881398128173907D1F3AB
:102D4000E80128813981A20FB31F6C93A685B7854E
:102D5000A05CBF4F11969C938E93A689B7892C9146
:102D600081E090E0078C02C0880F991F0A94E2F777
:102D7000822B8C9381E081A30488F589E02D8081EA
:102D80008064808381E090E0DF91CF911F910F916B
:102D90000895FC0181A1882329F0A489B5898C912B
:102DA00086FFFBCF11A20895FC01A485B585FD0126
:102DB000E05CFF4F2081318132968081918128171C
:102DC000390779F080819181A80FB91F8C912081FA
:102DD00031812F5F3F4F2F7333273183208390E062
:102DE00008958FEF9FEF0895DC011C96ED91FC9103
:102DF0001D97DF01A05CBF4F2D913C91119712965A
:102E00008D919C9111972817390739F08D919C91DC
:102E1000E80FF91F808190E008958FEF9FEF0895EC
:102E2000FC0124853585F901E05CFF4F80819181AB
:102E3000329620813181821B930B8F7399270895DD
:102E4000FB01E05CFF4F20813181DB01AE5BBF4FB6
:102E50004D915C912F5F3F4F2F73332742175307DC
:102E600041F040815181DB01A40FB51F8C93318368
:102E700020830895CF92DF92EF92FF920F931F93DA
:102E8000CF93DF936C01EB017B01E40EF51E00E0B4
:102E900010E0CE15DF0561F06991D601ED91FC914E
:102EA0000190F081E02DC6011995080F191FF1CF8F
:102EB000C801DF91CF911F910F91FF90EF90DF90AC
:102EC000CF9008953FB7F8948091270690912806F7
:102ED000A0912906B0912A0626B5A89B05C02F3FD0
:102EE00019F00196A11DB11D3FBFBA2FA92F982F30
:102EF0008827820F911DA11DB11DBC01CD0142E0AB
:102F0000660F771F881F991F4A95D1F70895AF92D2
:102F1000BF92CF92EF92FF920F931F93CF93DF93C5
:102F2000EC01262F888D998D009709F040C06A30FA
:102F300059F41D861C862C898E859F8538E0239F39
:102F4000800D911D112441C06D3009F4AAC08E89F5
:102F50008823C1F03C898C859D8546E0349F800D97
:102F6000911D112448855985481759075CF41D8621
:102F70001C868E859F8548E0349F800D911D11240D
:102F80009F878E87EA88FB88088919894E855F8527
:102F90006C857D85CC88CE010E94D8102C898C85CB
:102FA0009D8536E0239F800D911D112442C06A301B
:102FB00079F41D861C862C89FC013696E4918E8559
:102FC0009F852E9F800D911D11249F878E8769C03C
:102FD0006D3009F466C0FC0134963491631708F42F
:102FE00060C03196E491E61708F45BC0FC013296AC
:102FF00065917491422F50E0431B510937E0349F93
:103000005001359FB00C1124A60EB71EF501329663
:1030100034913196E491332311F0E1110DC0F501A3
:103020003496E4912C898C859D85E29F800D911DBD
:1030300011249D878C8735C0F501359644915E89B2
:10304000552311F16C89E32FF0E0E40FF11D47FDEA
:10305000FA956E9FD0016F9FB00D11244C855D8550
:103060004A0F5B1FE885F985E417F5076CF41D86A8
:103070001C86FC013696E4918E859F856E9F800D9F
:10308000911D11249F878E87EA88FB8808891989FA
:103090004E855F856C857D85CC88CE010E94D810D9
:1030A000BECF81E090E0DF91CF911F910F91FF9013
:1030B000EF90CF90BF90AF9008951F920F920FB6F0
:1030C0000F9211240BB60F922F933F938F939F93E0
:1030D000EF93FF932091650330916603809167031E
:1030E000909168032817390731F4809131018F7D61
:1030F0008093310114C0E0916703F0916803EB5DA8
:10310000FC4F2081809167039091680301968F7333
:103110009927909368038093670320933601FF916A
:10312000EF919F918F913F912F910F900BBE0F9038
:103130000FBE0F901F9018951F920F920FB60F920F
:1031400011240BB60F922F933F938F939F93EF937E
:10315000FF932091ED033091EE038091EF03909166
:10316000F0032817390731F48091D1008F7D8093C7
:10317000D10014C0E091EF03F091F003E355FC4F50
:1031800020818091EF039091F00301968F7399272E
:103190009093F0038093EF032093D600FF91EF917B
:1031A0009F918F913F912F910F900BBE0F900FBE6B
:1031B0000F901F9018951F920F920FB60F92112427
:1031C0000BB60F922F933F938F939F93EF93FF93A1
:1031D0002091750430917604809177049091780461
:1031E0002817390731F48091C9008F7D8093C90079
:1031F00014C0E0917704F0917804EB5CFB4F2081E0
:10320000809177049091780401968F739927909319
:103210007804809377042093CE00FF91EF919F91E3
:103220008F913F912F910F900BBE0F900FBE0F907B
:103230001F9018951F920F920FB60F9211240BB684
:103240000F922F933F938F939F93EF93FF93209130
:10325000FD043091FE048091FF0490910005281731
:10326000390731F48091C1008F7D8093C10014C073
:10327000E091FF04F0910005E354FB4F2081809121
:10328000FF049091000501968F7399279093000594
:103290008093FF042093C600FF91EF919F918F913F
:1032A0003F912F910F900BBE0F900FBE0F901F906C
:1032B00018951F920F920FB60F9211240BB60F9212
:1032C0002F933F934F935F936F937F938F939F932E
:1032D000AF93BF93EF93FF938091300182FD07C0BE
:1032E0008091360169E673E00E94201702C0809148
:1032F0003601FF91EF91BF91AF919F918F917F9197
:103300006F915F914F913F912F910F900BBE0F9056
:103310000FBE0F901F9018951F920F920FB60F922D
:1033200011240BB60F922F933F934F935F936F939C
:103330007F938F939F93AF93BF93EF93FF9380916E
:10334000D00082FD07C08091D60061EF73E00E943B
:10335000201702C08091D600FF91EF91BF91AF91ED
:103360009F918F917F916F915F914F913F912F919D
:103370000F900BBE0F900FBE0F901F9018951F92CD
:103380000F920FB60F9211240BB60F922F933F930B
:103390004F935F936F937F938F939F93AF93BF935D
:1033A000EF93FF938091C80082FD07C08091CE000B
:1033B00069E774E00E94201702C08091CE00FF915F
:1033C000EF91BF91AF919F918F917F916F915F919D
:1033D0004F913F912F910F900BBE0F900FBE0F900A
:1033E0001F9018951F920F920FB60F9211240BB6D3
:1033F0000F922F933F934F935F936F937F938F938E
:103400009F93AF93BF93EF93FF938091C00082FD92
:1034100007C08091C60061E075E00E94201702C0DD
:103420008091C600FF91EF91BF91AF919F918F91D5
:103430007F916F915F914F913F912F910F900BBEB4
:103440000F900FBE0F901F901895DC01ED91FC912D
:103450000190F081E02D19946115710579F0FB015F
:1034600001900020E9F73197AF01461B570BDC01B3
:10347000ED91FC910280F381E02D199480E090E0C1
:103480000895EF92FF920F931F93CF93DF938C01D8
:103490000E942C1A7C016DE0C8010E94251AEC01E3
:1034A0006AE0C8010E94251ACE0DDF1D8C0F9D1FFA
:1034B000DF91CF911F910F91FF90EF900895362FDC
:1034C00090E0FC01E05FF14F4491FC01E05BF24FC2
:1034D0002491FC01E055F24F9491992309F468C0BE
:1034E000442309F451C050E0FA013197E131F1056C
:1034F00008F04AC08827EE58FF4F8F4F0C94662E75
:10350000809180008F7703C0809180008F7D8093B1
:1035100080003AC084B58F7702C084B58F7D84BDAA
:1035200033C08091B0008F7703C08091B0008F7D51
:103530008093B00029C0809190008F7707C0809160
:1035400090008F7D03C080919000877F80939000D2
:103550001BC08091A0008F7707C08091A0008F7D55
:1035600003C08091A000877F8093A0000DC0809150
:1035700020018F7707C0809120018F7D03C080914B
:103580002001877F80932001E92FF0E0EE0FFF1FDD
:10359000EA56F24FA591B4919FB7F894311104C047
:1035A0008C912095282302C0EC912E2B2C939FBF49
:1035B0000895CF93DF9390E0FC01E05BF24F2491FC
:1035C000FC01E055F24F8491882361F190E0880F6F
:1035D000991FFC01EA50F24FC591D491FC01EA56C3
:1035E000F24FA591B491611109C09FB7F8948881F9
:1035F000209582238883EC912E230BC0623061F4E6
:103600009FB7F8948881322F309583238883EC917B
:103610002E2B2C939FBF06C08FB7F894E8812E2BDA
:1036200028838FBFDF91CF910895CF92DF92EF92E1
:10363000FF92CF93DF936B017C010E946217EB0135
:10364000C114D104E104F10479F00E9462176C1BEB
:103650007D0B683E7340A0F381E0C81AD108E108F1
:10366000F108C851DC4FECCFDF91CF91FF90EF9084
:10367000DF90CF9008952FB7F89460912306709152
:10368000240680912506909126062FBF0895FC01FF
:10369000848D958D292F22952F7030E0217033274E
:1036A000A9014627BA0171A360A380FF0CC0672B54
:1036B00019F480E290E002C081E290E040E050E046
:1036C00060E00C94B907868D978D833957E795078D
:1036D000E1F040F4843541E0940779F0803294457C
:1036E000C1F413C0863223E9920779F0893045EBA3
:1036F000940759F08532924961F4660F771F660F7F
:10370000771F636187E090E006C0626081E094E02B
:1037100002C081E690E00C941009F8942D9A98E08C
:1037200080E02F9A00000000880F1E9981602F987A
:103730009150B9F7789408950F931F93CF93DF9327
:10374000EC018B0110161106B4F4FE0185919491E1
:103750002496FE013297659174918F3F2FEF920767
:1037600029F480E090E00E94151B02C00E9410091D
:1037700004501109E7CFDF91CF911F910F91089568
:10378000DF92EF92FF920F931F93CF93DF93CDB70A
:10379000DEB768970FB6F894DEBF0FBECDBF7C01D1
:1037A0008B011016110654F5F70184913196D490CF
:1037B000F2E0EF0EF11C8F3741F46D2D70E080E0E8
:1037C00090E00E94151BD12C13C02E2DDE01119606
:1037D000F701AD019E2F921B9D1520F494919D93AE
:1037E0003196F8CFED0CF11C6D2D90E00E94B907D9
:1037F000ED2DF0E032960E1B1F0BD3CF68960FB65F
:10380000F894DEBF0FBECDBFDF91CF911F910F9116
:10381000FF90EF90DF9008958F929F92AF92BF92AA
:10382000CF92DF92EF92FF920F931F93CF93DF938C
:1038300000D01F92CDB7DEB77C014B015A01690160
:10384000FC01868D978D8732F3E99F0799F4F70184
:103850008589823031F4F0E2AF0EB11C005E1F4F5B
:103860001EC08330E1F420E2820E911C80E2C80E7B
:10387000D11C15C08632954191F4F701858980FFEE
:103880000EC0C801841B950B19F40F5F1F4F07C0B2
:103890006217730721F46B01C80ED91E8A01F70164
:1038A000848D80FF1AC084A599828A82DB82CC82B3
:1038B000AE014F5F5F4F64E090E00E94B907F701EF
:1038C00080A9B982AA821B830C83AE014F5F5F4F30
:1038D00064E090E00E94B9073CC0B401F70186A102
:1038E00097A10E941009B501F70180A591A50E943A
:1038F0001009C814D90419F40A151B0551F1F70170
:10390000848D85FF0EC0858980FF06C0102F00279B
:10391000A02AB12A850105C0DC2CCC248C289D2846
:103920006401B401F70184A595A50E941009B501B1
:10393000F70180A991A90E941009B601F70186A597
:1039400097A50E941009B801F70182A993A90E94C6
:1039500010090F900F900F900F90DF91CF911F9152
:103960000F91FF90EF90DF90CF90BF90AF909F901E
:103970008F900895AF92BF92CF92DF92EF92FF9215
:103980000F931F93CF93DF93EC0180912B06882335
:1039900049F0C7018F719927880F991FE1ECEE223A
:1039A000E82AF92A37FF05C0620F731F3195219568
:1039B0003109260F371F77FF02C060E070E0E8850D
:1039C000F9852E173F070CF4F9015F01A61AB70A13
:1039D00017FF05C0400F511F119501951109CA012C
:1039E000800F911F57FF02C040E050E00A851B8501
:1039F000801791070CF48C016801C41AD50A015094
:103A000011099F0121503109CE010E940C1C8B9895
:103A10008A988AA59BA5209102012778209302010C
:103A2000A5982EB1277C2EB960910201292F33274A
:103A3000A9014370552705E0440F551F0A95E1F78A
:103A4000462B409302016EB1A9014C705527440FDB
:103A5000551F440F551F462B4EB964B3A901407141
:103A60005527440F551F462B44BB6EB1A901407228
:103A700055275595479555954795462B4EB94091F5
:103A80000201207C3327A3E035952795AA95E1F71D
:103A9000242B209302018998899A2091020127788A
:103AA00020930201A5982EB1277C2EB940910201E6
:103AB0009C0123703327B5E0220F331FBA95E1F73D
:103AC000242B209302014EB19C012C703327220F2E
:103AD000331F220F331F242B2EB944B39C012071B6
:103AE0003327220F331F242B24BB4EB19C0120729D
:103AF00033273595279535952795242B2EB9209179
:103B00000201807C992763E0959587956A95E1F796
:103B1000822B809302018998899A8A9AAC14BD04F9
:103B20002CF49A2D8B2D5601C92ED82E8F2D992726
:103B30009C01237033272295220F207EAC014C700C
:103B40005527342F330F330FAC0140715527440FE5
:103B5000BC017695679576956795562F587063E00A
:103B6000969587956A95E1F78871B7016370772715
:103B7000962F9295990F907EB7016C707727660FFC
:103B8000660FF701E071FF277E2F770FD701B695FB
:103B9000A795B695A795A870F701B3E0F695E795B8
:103BA000BA95E1F71E2F18711C141D040CF043C0C8
:103BB000F501B0910201B778B0930201A598BEB1AA
:103BC000B77CBEB9B0910201B22BB0930201BEB175
:103BD000B32BBEB9B4B3B42BB4BBBEB1B52BBEB915
:103BE000B0910201B82BB09302018998899AB091E3
:103BF0000201B778B0930201A598BEB1B77CBEB9F7
:103C0000B0910201B92BB0930201BEB1B62BBEB97F
:103C1000B4B3B72BB4BBBEB1BA2BBEB9B0910201DD
:103C2000B12BB09302018998899A319711F6E1E09E
:103C3000CE1AD108B9CF8B9A8C8D80FF08C08E8D9B
:103C40009F8D8632954191F48D8980FF0FC00A8542
:103C50001B8501501109288539852150310940E023
:103C600050E060E070E0CE010E940C1CDF91CF912B
:103C70001F910F91FF90EF90DF90CF90BF90AF908A
:103C800008951F920F920FB60F9211242F933F9316
:103C90008F939F93AF93BF938091230690912406B7
:103CA000A0912506B09126063091310823E0230F1C
:103CB0002D3720F40196A11DB11D05C026E8230F64
:103CC0000296A11DB11D2093310880932306909385
:103CD0002406A0932506B09326068091270690918E
:103CE0002806A0912906B0912A060196A11DB11DB2
:103CF0008093270690932806A0932906B0932A065E
:103D0000BF91AF919F918F913F912F910F900FBED7
:103D10000F901F901895EF92FF920F931F93CF93E0
:103D2000DF93EC01FC018F01081B190B219121117C
:103D3000FACF080F191F8EEBE82EFF24F3940C170F
:103D40001D07A1F0F0929505E0929405699188E82D
:103D500095E00E9487176DE088E895E00E94251A9B
:103D60006AE088E895E00E94251AE9CFDF91CF91BB
:103D70001F910F91FF90EF9008954F925F926F9275
:103D80007F92AF92BF92CF92DF92EF92FF920F930A
:103D90001F93CF93DF93EC018B010E943B1B2B0100
:103DA0003C01A12CB12C650193E0D594C7949A9560
:103DB000E1F70D2C000CEE08FF0889E0D80E8DE32A
:103DC000E81EF11C80912D0690912E06A0912F06E1
:103DD000B0913006C816D906EA06FB0679F041E331
:103DE00056E0C701B6010E947A13811107C06CEF3B
:103DF00072E085E495E00E94411AF1CFF501E77089
:103E0000FF2786E0EE0FFF1F8A95E1F7EF5CF94F81
:103E100080E4A1E3B6E001900D928A95E1F7C092AB
:103E20002D06D0922E06E0922F06F0923006EFEF8C
:103E3000AE1ABE0AFAE2AF16F4E0BF0609F0B3CF3D
:103E40000E943B1B6B017C01C418D508E608F708EB
:103E5000109295051092940580E790E09093970555
:103E6000809396054AE0C701B6010E94D10E6DE12C
:103E700073E088E895E00E942C1A88819981019668
:103E800099838883F801808191818C0D9D1D918398
:103E90008083688179810E94522E80E090E01092A8
:103EA00095051092940520EA30E030939705209311
:103EB00096054AE00E94D10E6DE173E088E895E036
:103EC000DF91CF911F910F91FF90EF90DF90CF90F6
:103ED000BF90AF907F906F905F904F900C942C1A92
:103EE0002F923F924F925F926F927F928F929F920A
:103EF000AF92BF92CF92DF92EF92FF920F931F93F8
:103F0000CF93DF93CDB7DEB7D2500FB6F894DEBFB4
:103F10000FBECDBF8C011B010E943B1B4B015C01FE
:103F2000E12CF12C270183E0559447948A95E1F721
:103F3000052C000C6608770889E0580E8DE3681E92
:103F4000711CAE014F5F5F4FC301B2010E947A1333
:103F5000811107C06CEF72E085E495E00E94411A80
:103F6000F0CFEFEFEE1AFE0AFAE2EF16F4E0FF06EA
:103F7000C9F60E943B1B6B017C01C818D908EA08EE
:103F8000FB08109295051092940580E190E09093C3
:103F90009705809396054AE0C701B6010E94D10EAD
:103FA0006DE173E088E895E00E942C1AF8018081A9
:103FB0009181019691838083F101808191818C0DA3
:103FC0009D1D91838083F801608171810E94522E32
:103FD00080E090E0109295051092940520E430E086
:103FE00030939705209396054AE00E94D10E6DE12B
:103FF00073E088E895E00E942C1ADE5F0FB6F89413
:10400000DEBF0FBECDBFDF91CF911F910F91FF900B
:10401000EF90DF90CF90BF90AF909F908F907F9068
:104020006F905F904F903F902F900895CF93DF93C4
:10403000CDB7DEB72C970FB6F894DEBF0FBECDBF5D
:10404000789484B5826084BD84B5816084BD85B573
:10405000826085BD85B5816085BD80916E0081607F
:1040600080936E0010928100809181008260809325
:104070008100809181008160809381008091800027
:104080008160809380008091B10084608093B10052
:104090008091B00081608093B00080919100826037
:1040A0008093910080919100816080939100809134
:1040B00090008160809390008091A1008260809345
:1040C000A1008091A10081608093A1008091A00057
:1040D00081608093A0008091210182608093210102
:1040E0008091210181608093210180912001816074
:1040F0008093200180917A00846080937A0080917F
:104100007A00826080937A0080917A008160809347
:104110007A0080917A00806880937A001092C100C2
:10412000E0915905F0915A0581E090E09C010090E2
:10413000650502C0220F331F0A94E2F72083E09145
:104140005505F09156051082E0915705F0915805FC
:104150002FEC208310926605E0915B05F0915C05E1
:1041600040819C010090610502C0220F331F0A9418
:10417000E2F7242B2083E0915B05F0915C05408100
:104180009C010090620502C0220F331F0A94E2F7DF
:10419000242B2083E0915B05F0915C0540819C011C
:1041A0000090630502C0220F331F0A94E2F7242B0C
:1041B0002083E0915B05F0915C052081009064050F
:1041C00002C0880F991F0A94E2F7809582238083AA
:1041D00060E080E090E00E944F0F883024E5920775
:1041E00009F4D5C0803234E5930709F4D3C0893887
:1041F000994809F4D2C060E087E690E00E944F0F32
:104200008734974409F4CCC081EA90E00E94901072
:10421000613081E6780709F4C6C06F3F7F4F19F41B
:1042200006E215E1F4C08FEB90E00E945E10673566
:1042300023E8720709F4BAC0613834E9730709F456
:10424000B8C0613185E1780709F4B6C0603295E104
:10425000790709F4B4C0663225E1720709F36138C1
:1042600035E1730709F4AEC06115744109F4ADC0BE
:1042700084ED90E00E9490106031734509F4A8C06D
:1042800087ED90E00E9490106133704809F4A3C05C
:104290008FEE90E00E945E106732734909F49EC071
:1042A0008EEF90E00E949010BB27A92F982F872FA8
:1042B0008335904209F495C084E090E00E9490100C
:1042C0009B01811124C0211560E8360701F580911A
:1042D000000290910102A091020289839A83AB832C
:1042E000AE014F5F5F4F63E089EB90E00E94B9073A
:1042F00060E080ED90E00E944F0F893929F080390D
:10430000C9F400E910E983C009E910E080C0263251
:1043100075E1370709F484CF203F89E8380709F4AD
:1043200063C0223595E8390709F461C021313C4A60
:1043300009F460C083ED90E00E949010BB27A92F84
:10434000982F872F8336914909F457C083ED90E069
:104350000E9490103DE6370F323008F451C0783992
:1043600009F44EC0773709F44BC0763109F448C0E0
:10437000633D710509F446C0633D734D09F445C0C2
:1043800060E080E090E00E944F0F8C0140C008E0A8
:1043900014E53DC000E214E53AC009E812E137C077
:1043A00007E413E834C003E619E131C007E513E878
:1043B0002EC001E814E92BC001E115E128C000E29C
:1043C00015E125C001E815E122C004E118E61FC08F
:1043D00000E113E51CC001E310E819C007E213E98E
:1043E00016C003E510E213C005E317E710C009E8A3
:1043F00017E70DC001E11CEA0AC003E611E907C096
:104400008B0105C003ED10E002C003ED13ED0E9427
:10441000200F1092A3051092A2051093A7050093F8
:10442000A605073533E8130709F499C108F0A5C0BC
:10443000033570E2170709F4F3C108F047C00131F2
:1044400095E1190709F42CC1B0F40939110509F4F3
:104450009EC138F40130110509F04DC280E091E1B0
:10446000B0C1043531E0130709F40FC1053015411F
:1044700009F4A5C140C2063275E1170709F428C145
:1044800080F40032154109F036C283E194E0909344
:10449000A5058093A40566E0E62EF12C0BE613E05B
:1044A00030C2013825E1120709F4CFC102301641AC
:1044B00009F021C283E094E09093A5058093A405C0
:1044C000B6E0EB2EF12C04EC12E01BC2043168E6DE
:1044D000160709F421C108F5003183E5180709F42E
:1044E00003C178F40533154409F005C280E090E17A
:1044F0009093A5058093A4056CE970E088E197E0AE
:10450000E4C1083034E5130709F459C109301846ED
:1045100009F0F1C182E091E162C1033977E7170741
:1045200009F4D6C1A8F4033897E7190709F40CC1B8
:104530000938174709F0DFC183E194E09093A5059E
:104540008093A40521E4E22EF12C09E113E0D9C106
:10455000063937E7130709F493C10133104809F00E
:10456000CAC183E194E19093A5058093A40592E1EB
:10457000E92EF12C07E013E0C4C1083373E91707F3
:1045800009F454C170F5073293E9190709F430C1F1
:10459000B8F4023033E9130709F445C138F400399F
:1045A000104909F0A8C183E194E1DBC0003283E93E
:1045B000180709F404C10532134909F40BC19BC162
:1045C000093223E9120709F434C108F403C10133A5
:1045D00063E9160709F401C10533134909F4FDC065
:1045E0008AC1093884E91807C8F5073894E919071A
:1045F00008F049C1013824E9120709F429C190F4EF
:10460000005413490230110508F075C183E194E0AC
:104610009093A5058093A405F5E6EF2EF12C0CE50B
:1046200012E06FC10638144909F065C183E094E0D7
:104630009093A5058093A40580EE91E090938F055B
:1046400080938E0580E491E090938D0580938C0596
:104650007BE3E72EF12C0CED11E053C1053075EB37
:10466000170709F428C138F401311C4A09F043C185
:1046700083E194E1E0C0093025EB120709F428C179
:104680000530154C09F417C136C182E090E19093D2
:10469000A5058093A4056CE970E084EB97E015C153
:1046A00083E090E09093A5058093A40580EE91E0CF
:1046B00090938F0580938E0580E491E090938D0513
:1046C00080938C0573E0E72EF12C01E713E019C10C
:1046D00083E194E09093A5058093A4055CE0E52E2A
:1046E000F12C0FE513E00DC183E19EE09093A50549
:1046F0008093A40580EE91E090938F0580938E05C2
:1047000080E491E090938D0580938C0542E0E42E47
:10471000F12C0DE513E0F5C083E094E09093A5053E
:104720008093A40580EE91E090938F0580938E0591
:1047300080E491E090938D0580938C0533E0E32E27
:10474000F12C0AE513E0DDC082E091E19093A5052C
:104750008093A40560E970E088E896E0B6C083E045
:1047600094E19093A5058093A40580EE91E0909349
:104770008F0580938E0580E491E090938D05809362
:104780008C0582E0E82EF12C05E013E0BAC083E14D
:1047900094E19093A5058093A40580EE91E0909319
:1047A0008F0580938E0580E491E090938D05809332
:1047B0008C050DE1E02EF12C08EE12E0A2C084E0A1
:1047C00090E19093A5058093A40568ED70E080EBDF
:1047D00095E07BC080E091E102C080E090E19093A1
:1047E000A5058093A4056CEC70E084EE94E06DC0A8
:1047F00083E094E09093A5058093A40580E991E07F
:1048000090938F0580938E0580EF90E090938D05B7
:1048100080938C051EE1E12EF12C0AEC12E071C0B0
:1048200087E194E108C083E094E005C083E194E06F
:1048300002C083E096E19093A5058093A405A3E0D0
:10484000EA2EF12C01EC12E05CC083E194E002C09E
:1048500087E094E09093A5058093A40580EE91E015
:1048600090938F0580938E0580E491E090938D0561
:1048700080938C05E5E4EE2EF12C07E112E041C0B7
:1048800083E094E002C083E194E09093A5058093D7
:10489000A40580EE91E090938F0580938E0580E4CF
:1048A00091E090938D0580938C056BE2E62EF12CC0
:1048B00001EB11E026C088E090E19093A50580937C
:1048C000A40560EB70E084E394E00E949C1B17C099
:1048D00080E090E19093A5058093A40560EC70E0E2
:1048E00084E793E00E949C1B80E991E090938F0500
:1048F00080938E0504C010928D0510928C0500E007
:1049000010E02091A505822F82958F7090E0817034
:1049100099279093A9058093A8050115110581F0A9
:1049200069E070E088EA91E00E94C01BB701C8010D
:104930000E94C01B66E070E082EA91E00E94C01B0A
:1049400060E088E895E00E947D0B60E088E895E0F3
:104950000E94471B8091A6059091A705883894492D
:1049600009F064C210922B0620EE3FEF40E050E0C9
:1049700060E070E088E895E00E94030AE090B205EC
:10498000F090B30580912C06811107C08091A40599
:1049900080FF03C05EE2E52EF12C8091A605909188
:1049A000A7058230964119F44EE2E42EF12C00E086
:1049B00010E020E030E040E050E060E070E088E8A7
:1049C00095E00E940C1C8091A40580FD10C060E061
:1049D00070E08091AE059091AF050E94100960E0F3
:1049E00070E08091B0059091B1050E9410098B98FC
:1049F0008A9880910201877880930201A5988EB1F0
:104A0000877C8EB9409102018F2D99279C012370DC
:104A1000332755E0220F331F5A95E1F7242B2093BB
:104A200002014EB19C012C703327220F331F220F3D
:104A3000331F242B2EB944B39C0120713327220F3E
:104A4000331F242B24BB4EB19C0120723327359594
:104A5000279535952795242B2EB920910201807C2E
:104A60009927F3E095958795FA95E1F7822B809346
:104A700002018998899A80910201877880930201C6
:104A8000A5988EB1877C8EB920910201C7018370F1
:104A90009927A5E0880F991FAA95E1F7822B8093AB
:104AA00002012EB1C7018C709927880F991F880FBA
:104AB000991F822B8EB924B3C70180719927880F63
:104AC000991F822B84BB2EB1C701807299279595BF
:104AD000879595958795822B8EB920910201C70104
:104AE000807C992733E0959587953A95E1F7822B5D
:104AF000809302018998899A8A9A80910101877826
:104B0000809301019D988DB1877C8DB94091A4055A
:104B10005091A5058091A6059091A70546FD1EC060
:104B2000889A889888988898209100012CB122B39F
:104B30002CB120910001889A40FD10C0893822E1F3
:104B4000920761F0889A8898889888982091000147
:104B50002CB122B32CB120910001889A813195416A
:104B600061F4889A889888988898809100018CB11F
:104B700082B38CB180910001889AFA01E470FF271A
:104B8000889A88988898889844FF8CC06091000122
:104B90008CB192B37CB1309100016076262F2295C2
:104BA00026952770807386958695682F622B907264
:104BB000892F90E095958795862B672F6870660FF3
:104BC000660F862B632F687198E0699FB0011124EE
:104BD000682B889A889A889888988898809100018C
:104BE0002CB192B37CB1A09100018076382F329520
:104BF00036953770207326952695822F832B9072D9
:104C0000292F30E035952795282B872F8870880F1E
:104C1000880F282B8A2F887138E0839F7001112418
:104C2000822F8E29889A889A889888988898709177
:104C30000001ACB132B32CB1909100017076B72F66
:104C4000B295B695B770A073A695A6957A2F7B2BD3
:104C50003072A32FB0E0B595A795A72B2870220F2F
:104C6000220FA22B987178E0979F900111242A2B94
:104C7000889A8C7FEF2B59F0287F98E0899F7001EC
:104C80001124F22A669566956695E62A7CC0687FAF
:104C900038E0839F70011124F62A269526952695E3
:104CA000E22A71C0D09000018CB192B3BCB1A09146
:104CB0000001889A889A889888988898309100018D
:104CC0002CB102B36CB1C09000013076E32EF12C10
:104CD00035E0F594E7943A95E1F7207330E03595A7
:104CE000279535952795E22AF32A007210E015954D
:104CF0000795E02AF12A687070E0660F771F660F4B
:104D0000771F9701262B372B6C2D687178E0679FF2
:104D100070011124E22AF32A889A2D2D2076322F51
:104D2000329536953770807386958695282F232B7C
:104D30009072892F90E095958795822BB870BB0F64
:104D4000BB0F8B2B2A2F287198E0299F90011124EB
:104D5000822BF82A43FF03C0FE24EF24FE24EF2B0E
:104D600091F09701207E3770C701892F992786958A
:104D700086958695822B932BFE2CEE24FF0CFF0C40
:104D8000FF0CE82AF92A80912B06882399F09701D5
:104D9000207CC70188279470A5E096958795AA95F1
:104DA000E1F76FE3E622FF24F694E794E82AF92A74
:104DB000E22AF32A889A8B9A80910101886780936E
:104DC00001019D9A8DB188638DB940FD14C0009199
:104DD0009205109193050150110920919005309191
:104DE00091052150310940E050E060E070E088E832
:104DF00095E00E940C1C7FE1E7167FEFF706B1F407
:104E000086E08983AE014F5F5F4F61E08AE390E007
:104E10000E94B9078091A4059091A5058F7E90937B
:104E2000A5058093A40581E080932B0660E070E0E7
:104E300088E895E00E945F0761E088E895E00E94BD
:104E40007D0B6BE372E085E495E00E942C1A1092D2
:104E500086051092840510928105109280051092AB
:104E600087058AE080937F058FEF809324038093EA
:104E70002303809322030E943B1B8B0161E08091FE
:104E80007F050E94D91A0E94B20E60E08CE00E9459
:104E9000D91A61E08BE00E94D91A61E08DE00E948E
:104EA000D91AFAE0FF2E8FEF0E941113FA94F11035
:104EB000FACF60E080917F050E945F1A40E050E0E9
:104EC000BA0180E00E942413F82E8093850581E0CA
:104ED000F81649F00E943B1B601B710B613D774047
:104EE00068F381E04EC04AEA51E060E070E088E09B
:104EF0000E94241382FF03C0F092860510C0E4E0F4
:104F0000FE2E0E948D1B80938505FA94F110F9CF37
:104F10008A3A11F082E035C082E080938605809164
:104F20008605823021F0C12CD12C760105C0C12C20
:104F3000D12CE12C70E4F72E40E050E0BA0187E379
:104F40000E942413B701A60189E20E9424138093D2
:104F50008505882349F00E943B1B601B710B613D56
:104F6000774050F388E00DC080918605823011F5BE
:104F700040E050E0BA018AE30E942413882361F0E4
:104F800086E0809380050E94B20E65ED72E085E4B4
:104F900095E00E94411AFDC00E948D1B807C803CE0
:104FA00019F483E0809386050E948D1B0E948D1B5F
:104FB0000E948D1B0E94B20E6BE672E085E495E0C4
:104FC0000E94411A1A8219821D821C821F821E822F
:104FD0001986188682E080939C05109295051092A0
:104FE00094051092970510929605EE24EA9437E006
:104FF000F32EF0929B05E0929A05F0929905E092CB
:1050000098056FE672E088E895E00E94411A0FEF7C
:105010001FEF10939B0500939A0510939905009339
:10502000980560E872E088E895E00E94411AF092E5
:105030009B05E0929A05F0929905E09298056DE83B
:1050400072E088E895E00E94411A10939B05009356
:105050009A05109399050093980560E872E088E836
:1050600095E00E94411AF0929B05E0929A05F09219
:105070009905E09298056BE972E088E895E00E9456
:10508000411A10939B0500939A051093990500937C
:10509000980560E872E088E895E00E94411AF09275
:1050A0009B05E0929A05F0929905E09298056CEACA
:1050B00072E088E895E00E94411A10939B050093E6
:1050C0009A0510939905009398056AEB72E088E8B9
:1050D00095E00E94411AE12C48EFF42E00E411E023
:1050E0002CE330E040E050E064EA71E088E895E0CD
:1050F0000E9406140AE610E020EE31E04AE650E095
:1051000064EA71E088E895E00E94651405ED10E01E
:1051100020EE31E045ED50E064EA71E088E895E08A
:105120000E9465140EEB11E0109395050093940511
:1051300085E190E0909397058093960586EC92E048
:105140000E948B1E109395050093940580E890E0D3
:1051500090939705809396058BEC92E00E948B1EAE
:1051600010939505009394058AEE90E0909397052F
:105170008093960580ED92E00E948B1ECC24CA9409
:1051800053E0D52E60E2862E63E0962EA12CB12C42
:10519000C0C0FFCF1A86B601681B790B7C876B876E
:1051A00060E080916C050E94D91A60E080916B05E7
:1051B0000E94D91A61E0809169050E94D91A61E0C4
:1051C00080916A050E94D91A80917A05E09175054F
:1051D000F09176059081809589238083909179055F
:1051E000E0917105F09172058081892B8083809117
:1051F0006B050E94F2128C0180916B050E94F212E5
:105200007C01C8018E199F090496099708F0C1C056
:10521000E00EF11EF594E79461E080916C050E9428
:10522000D91A60E0809169050E94D91A80917705AA
:10523000E0916F05F09170059081809589238083BE
:1052400090917A05E0917505F09176058081892B22
:10525000808380916B050E94F2128C018091690518
:105260000E94F21220906D0530906E0521143104D9
:1052700009F491C0BC01990F880B990B0E94492D2C
:105280002B013C01B801110F880B990B0E94492D8D
:105290009B01AC01C301B2010E949F2C20E030E0D1
:1052A00040E85FE30E94322C2B013C012B853C85BA
:1052B000B901330F880B990B0E94492DA30192016C
:1052C0000E94D52D2B013C01B10180E090E00E94AD
:1052D000472DA30192010E94D52D20E030E040E847
:1052E0005AE30E94D52D0E94112D8B013A85311170
:1052F00002C000E010E061E089E30E94D91A61E099
:1053000088E30E94D91A0A5011090F3D134008F48E
:1053100049C060E0809169050E94D91A60E08091DF
:105320006A050E94D91A61E080916C050E94D91A21
:1053300061E080916B050E94D91A90917705E09108
:105340006F05F09170058081892B808380917805AD
:10535000E0917305F0917405908180958923808395
:10536000809169050E94F2128C01809169050E946A
:10537000F2129801281B390B2C5F3F4F2930310561
:1053800008F008CF800F911F9595879531E03A87F7
:1053900002CF1A8641CFBC01601B710B8601061B30
:1053A000170BA4CF409090055090910571E0471ADB
:1053B0005108052C000C6608770896012E193F0944
:1053C000C901330FAA0BBB0B9C01AD012456310957
:1053D0004109510966277727CB01641975098609A8
:1053E00097090E94422E28E433E040E050E00E94FA
:1053F000D72B420E531E641E751E84EA481681E0A8
:1054000058060CF486CF409092055090930591E099
:10541000491A5108052C000C660877082B853C8535
:10542000C901330FAA0BBB0B9C01AD0128573109F1
:105430004109510966277727CB0164197509860947
:1054400097090E94422EA50194010E94D72B420E7B
:10545000531E641E751E3AE6431651043CF480E167
:105460000E94B31080E40E94B31028C06BE6461A75
:1054700051087AE64716510470F480E70E94B31091
:1054800080EA0E94B310BE01685F7F4FCE01049690
:105490000E94BD1E1AC080E10E94B31080E40E94E9
:1054A000B31080E70E94B31080EA0E94B310BE01DF
:1054B000685F7F4FCE0104960E94BD1EBE016A5FE9
:1054C0007F4FCE0101960E94701F68EC70E080E073
:1054D00090E00E94151B1DCFCF92DF92EF92FF92BA
:1054E000E5E4F5E01382128288EEC82E83E0D82E20
:1054F000E12CF12CC482D582E682F78267E072E06B
:105500007183608381E095E0958784878DEB94E0DB
:105510009787868785EC90E0918B808B84EC90E078
:10552000938B828B80EC90E0958B848B81EC90E068
:10553000978B868B82EC90E0918F808F86EC90E049
:10554000938F828F44E0448F33E0358F27E0268F9E
:1055500095E0978F81E080A3E1E0F6E0138212826C
:10556000C482D582E682F78271836083A9E7B4E0C2
:10557000B587A487A5E3B4E0B787A687ADECB0E014
:10558000B18BA08BACECB0E0B38BA28BA8ECB0E0FD
:10559000B58BA48BA9ECB0E0B78BA68BAAECB0E0DE
:1055A000B18FA08FAEECB0E0B38FA28F448F358F58
:1055B000268F978F80A3EFEDF5E013821282C482CD
:1055C000D582E682F78271836083A1EFB3E0B5876D
:1055D000A487ADEAB3E0B787A687A5EDB0E0B18BAD
:1055E000A08BA4EDB0E0B38BA28BA0EDB0E0B58BA7
:1055F000A48BA1EDB0E0B78BA68BA2EDB0E0B18F8C
:10560000A08FA6EDB0E0B38FA28F448F358F268F89
:10561000978F80A3EDEBF5E013821282C482D582CE
:10562000E682F7827183608369E673E07587648739
:1056300065E273E07787668765E371E0718B608B65
:1056400064E371E0738B628B60E371E0758B648B54
:1056500061E371E0778B668B62E371E0718F608F3D
:1056600066E371E0738F628F448F358F268F978F3B
:1056700080A3E8E8F5E01382128240EF50E0558302
:10568000448320E431E03783268351874087338782
:105690002287158A1586148617861686848B2FEF27
:1056A0003FEF338B228B318B208B868B178A118EA9
:1056B000108E87E192E091838083EBE7F5E015821D
:1056C000168211861386A7E6B5E089E312968C93BD
:1056D000129788E314968C93149789E013968C9311
:1056E000139788E015968C9315978CE291E01796A6
:1056F0009C938E931697E8EBFDE0E491F0E0EE0FBB
:10570000FF1FEA56F24F8591949119969C938E93C0
:105710001897E9EEFDE0E491F0E0EE0FFF1FEA5686
:10572000F24F859194911B969C938E931A97E8EE75
:10573000FDE0E491F0E0EE0FFF1FEA56F24F859195
:1057400094911D969C938E931C97E9EBFDE0E49158
:10575000F0E0EE0FFF1FEA56F24F859194911F96ED
:105760009C938E931E97E8E5FDE0E4915096EC93B0
:105770005097E9E8FDE0E4915296EC935297E8E8FF
:10578000FDE0E4915196EC935197E9E5FDE0E49159
:105790005396EC9353978AE090E08D939C93FF90FF
:1057A000EF90DF90CF900895F8940C946E2E052E14
:1057B00097FB1EF400940E94EE2B57FD07D00E9429
:1057C000012C07FC03D04EF40C94EE2B5095409521
:1057D000309521953F4F4F4F5F4F0895909580959D
:1057E000709561957F4F8F4F9F4F08950E94232C96
:1057F000A59F900DB49F900DA49F800D911D112425
:105800000895A1E21A2EAA1BBB1BFD010DC0AA1F01
:10581000BB1FEE1FFF1FA217B307E407F50720F019
:10582000A21BB30BE40BF50B661F771F881F991F94
:105830001A9469F760957095809590959B01AC01DD
:10584000BD01CF010895A29FB001B39FC001A39FE6
:10585000700D811D1124911DB29F700D811D1124A9
:10586000911D08955058BB27AA270E944A2C0C94DA
:105870009B2D0E948D2D38F00E94942D20F039F43C
:105880009F3F19F426F40C948A2D0EF4E095E7FB63
:105890000C94842DE92F0E94AC2D58F3BA1762079F
:1058A00073078407950720F079F4A6F50C94CE2DA4
:1058B0000EF4E0950B2EBA2FA02D0B01B90190012B
:1058C0000C01CA01A0011124FF27591B99F0593F6F
:1058D00050F4503E68F11A16F040A22F232F342FB7
:1058E0004427585FF3CF469537952795A795F04005
:1058F0005395C9F77EF41F16BA0B620B730B840B1A
:10590000BAF09150A1F0FF0FBB1F661F771F881FD1
:10591000C2F70EC0BA0F621F731F841F48F4879529
:1059200077956795B795F7959E3F08F0B0CF93951B
:10593000880F08F09927EE0F9795879508950E9494
:10594000B32C0C949B2D0E94942D58F00E948D2D09
:1059500040F029F45F3F29F00C94842D51110C94F0
:10596000CF2D0C948A2D0E94AC2D68F39923B1F3AE
:10597000552391F3951B550BBB27AA276217730775
:10598000840738F09F5F5F4F220F331F441FAA1F09
:10599000A9F335D00E2E3AF0E0E832D091505040C5
:1059A000E695001CCAF72BD0FE2F29D0660F771F73
:1059B000881FBB1F261737074807AB07B0E809F059
:1059C000BB0B802DBF01FF2793585F4F3AF09E3FDE
:1059D000510578F00C94842D0C94CF2D5F3FE4F3A7
:1059E000983ED4F3869577956795B795F7959F5F21
:1059F000C9F7880F911D9695879597F90895E1E06D
:105A0000660F771F881FBB1F621773078407BA07CB
:105A100020F0621B730B840BBA0BEE1F88F7E09526
:105A200008950E94182D6894B1110C94CF2D0895FB
:105A30000E94B42D88F09F5798F0B92F9927B7513D
:105A4000B0F0E1F0660F771F881F991F1AF0BA9522
:105A5000C9F714C0B13091F00E94CE2DB1E0089585
:105A60000C94CE2D672F782F8827B85F39F0B93F77
:105A7000CCF3869577956795B395D9F73EF49095D5
:105A80008095709561957F4F8F4F9F4F0895E89453
:105A900009C097FB3EF490958095709561957F4F76
:105AA0008F4F9F4F9923A9F0F92F96E9BB27939524
:105AB000F695879577956795B795F111F8CFFAF434
:105AC000BB0F11F460FF1BC06F5F7F4F8F4F9F4F65
:105AD00016C0882311F096E911C0772321F09EE8C3
